{
  "_format": "hh-sol-artifact-1",
  "contractName": "StakePINT",
  "sourceName": "contracts/StakePINT.sol",
  "abi": [
    {
      "anonymous": false,
      "inputs": [
        {
          "indexed": false,
          "internalType": "uint8",
          "name": "version",
          "type": "uint8"
        }
      ],
      "name": "Initialized",
      "type": "event"
    },
    {
      "anonymous": false,
      "inputs": [
        {
          "indexed": true,
          "internalType": "address",
          "name": "previousOwner",
          "type": "address"
        },
        {
          "indexed": true,
          "internalType": "address",
          "name": "newOwner",
          "type": "address"
        }
      ],
      "name": "OwnershipTransferred",
      "type": "event"
    },
    {
      "anonymous": false,
      "inputs": [
        {
          "indexed": true,
          "internalType": "address",
          "name": "user",
          "type": "address"
        },
        {
          "indexed": false,
          "internalType": "uint256",
          "name": "amount",
          "type": "uint256"
        },
        {
          "indexed": false,
          "internalType": "uint256",
          "name": "timestamp",
          "type": "uint256"
        }
      ],
      "name": "Stake",
      "type": "event"
    },
    {
      "anonymous": false,
      "inputs": [
        {
          "indexed": true,
          "internalType": "address",
          "name": "user",
          "type": "address"
        },
        {
          "indexed": false,
          "internalType": "uint256",
          "name": "amount",
          "type": "uint256"
        },
        {
          "indexed": false,
          "internalType": "uint256",
          "name": "timestamp",
          "type": "uint256"
        }
      ],
      "name": "Unstake",
      "type": "event"
    },
    {
      "inputs": [],
      "name": "PINT",
      "outputs": [
        {
          "internalType": "contract ERC20",
          "name": "",
          "type": "address"
        }
      ],
      "stateMutability": "view",
      "type": "function"
    },
    {
      "inputs": [
        {
          "internalType": "address",
          "name": "",
          "type": "address"
        },
        {
          "internalType": "uint256",
          "name": "",
          "type": "uint256"
        }
      ],
      "name": "amountStaked",
      "outputs": [
        {
          "internalType": "uint256",
          "name": "amount",
          "type": "uint256"
        },
        {
          "internalType": "uint256",
          "name": "timestamp",
          "type": "uint256"
        }
      ],
      "stateMutability": "view",
      "type": "function"
    },
    {
      "inputs": [
        {
          "internalType": "address",
          "name": "_user",
          "type": "address"
        }
      ],
      "name": "getAmountStaked",
      "outputs": [
        {
          "internalType": "uint256",
          "name": "",
          "type": "uint256"
        }
      ],
      "stateMutability": "view",
      "type": "function"
    },
    {
      "inputs": [
        {
          "internalType": "address",
          "name": "pintAddress",
          "type": "address"
        },
        {
          "internalType": "address",
          "name": "owner",
          "type": "address"
        }
      ],
      "name": "initialize",
      "outputs": [],
      "stateMutability": "nonpayable",
      "type": "function"
    },
    {
      "inputs": [],
      "name": "owner",
      "outputs": [
        {
          "internalType": "address",
          "name": "",
          "type": "address"
        }
      ],
      "stateMutability": "view",
      "type": "function"
    },
    {
      "inputs": [],
      "name": "renounceOwnership",
      "outputs": [],
      "stateMutability": "nonpayable",
      "type": "function"
    },
    {
      "inputs": [
        {
          "internalType": "uint256",
          "name": "_amount",
          "type": "uint256"
        }
      ],
      "name": "stake",
      "outputs": [],
      "stateMutability": "nonpayable",
      "type": "function"
    },
    {
      "inputs": [
        {
          "internalType": "uint256",
          "name": "",
          "type": "uint256"
        }
      ],
      "name": "stakers",
      "outputs": [
        {
          "internalType": "address",
          "name": "",
          "type": "address"
        }
      ],
      "stateMutability": "view",
      "type": "function"
    },
    {
      "inputs": [],
      "name": "stakersLength",
      "outputs": [
        {
          "internalType": "uint256",
          "name": "",
          "type": "uint256"
        }
      ],
      "stateMutability": "view",
      "type": "function"
    },
    {
      "inputs": [
        {
          "internalType": "address",
          "name": "",
          "type": "address"
        }
      ],
      "name": "stakesCount",
      "outputs": [
        {
          "internalType": "uint256",
          "name": "",
          "type": "uint256"
        }
      ],
      "stateMutability": "view",
      "type": "function"
    },
    {
      "inputs": [],
      "name": "totalStaked",
      "outputs": [
        {
          "internalType": "uint256",
          "name": "",
          "type": "uint256"
        }
      ],
      "stateMutability": "view",
      "type": "function"
    },
    {
      "inputs": [
        {
          "internalType": "address",
          "name": "newOwner",
          "type": "address"
        }
      ],
      "name": "transferOwnership",
      "outputs": [],
      "stateMutability": "nonpayable",
      "type": "function"
    },
    {
      "inputs": [
        {
          "internalType": "uint256",
          "name": "_amount",
          "type": "uint256"
        }
      ],
      "name": "unstake",
      "outputs": [],
      "stateMutability": "nonpayable",
      "type": "function"
    },
    {
      "inputs": [
        {
          "internalType": "address",
          "name": "_user",
          "type": "address"
        }
      ],
      "name": "vePINT",
      "outputs": [
        {
          "internalType": "uint256",
          "name": "",
          "type": "uint256"
        }
      ],
      "stateMutability": "view",
      "type": "function"
    }
  ],
  "bytecode": "0x608060405234801561001057600080fd5b5061198e806100206000396000f3fe608060405234801561001057600080fd5b50600436106100ea5760003560e01c8063817b1cd21161008c578063ccac9c9111610066578063ccac9c9114610238578063f2fde38b14610268578063f736f42214610284578063fd5e6dd1146102a2576100ea565b8063817b1cd2146101e05780638da5cb5b146101fe578063a694fc3a1461021c576100ea565b80633d4358b1116100c85780633d4358b11461016c578063485cc9551461018a5780635104c819146101a6578063715018a6146101d6576100ea565b80630e36e355146100ef5780631593e3951461011f5780632e17de7814610150575b600080fd5b610109600480360381019061010491906111ab565b6102d2565b60405161011691906111f1565b60405180910390f35b61013960048036038101906101349190611238565b6102ea565b604051610147929190611278565b60405180910390f35b61016a600480360381019061016591906112a1565b61032b565b005b610174610740565b60405161018191906111f1565b60405180910390f35b6101a4600480360381019061019f91906112ce565b61074d565b005b6101c060048036038101906101bb91906111ab565b6108df565b6040516101cd91906111f1565b60405180910390f35b6101de6109c1565b005b6101e86109d5565b6040516101f591906111f1565b60405180910390f35b610206610a5c565b604051610213919061131d565b60405180910390f35b610236600480360381019061023191906112a1565b610a86565b005b610252600480360381019061024d91906111ab565b610c77565b60405161025f91906111f1565b60405180910390f35b610282600480360381019061027d91906111ab565b610dec565b005b61028c610e6f565b6040516102999190611397565b60405180910390f35b6102bc60048036038101906102b791906112a1565b610e95565b6040516102c9919061131d565b60405180910390f35b60666020528060005260406000206000915090505481565b6065602052816000526040600020818154811061030657600080fd5b9060005260206000209060020201600091509150508060000154908060010154905082565b6000610336336108df565b90508181101561037b576040517f08c379a00000000000000000000000000000000000000000000000000000000081526004016103729061140f565b60405180910390fd5b606960009054906101000a900473ffffffffffffffffffffffffffffffffffffffff1673ffffffffffffffffffffffffffffffffffffffff1663a9059cbb33846040518363ffffffff1660e01b81526004016103d892919061142f565b6020604051808303816000875af11580156103f7573d6000803e3d6000fd5b505050506040513d601f19601f8201168201806040525081019061041b9190611490565b50606560003373ffffffffffffffffffffffffffffffffffffffff1673ffffffffffffffffffffffffffffffffffffffff168152602001908152602001600020600061046791906110fd565b6000828261047591906114ec565b9050600081111561056857606560003373ffffffffffffffffffffffffffffffffffffffff1673ffffffffffffffffffffffffffffffffffffffff168152602001908152602001600020604051806040016040528085856104d691906114ec565b8152602001428152509080600181540180825580915050600190039060005260206000209060020201600090919091909150600082015181600001556020820151816001015550506001606660003373ffffffffffffffffffffffffffffffffffffffff1673ffffffffffffffffffffffffffffffffffffffff1681526020019081526020016000208190555061073b565b60005b606880549050811015610739573373ffffffffffffffffffffffffffffffffffffffff16606882815481106105a3576105a2611520565b5b9060005260206000200160009054906101000a900473ffffffffffffffffffffffffffffffffffffffff1673ffffffffffffffffffffffffffffffffffffffff160361072657606860016068805490506105fd91906114ec565b8154811061060e5761060d611520565b5b9060005260206000200160009054906101000a900473ffffffffffffffffffffffffffffffffffffffff166068828154811061064d5761064c611520565b5b9060005260206000200160006101000a81548173ffffffffffffffffffffffffffffffffffffffff021916908373ffffffffffffffffffffffffffffffffffffffff16021790555060688054806106a7576106a661154f565b5b6001900381819060005260206000200160006101000a81549073ffffffffffffffffffffffffffffffffffffffff021916905590556000606660003373ffffffffffffffffffffffffffffffffffffffff1673ffffffffffffffffffffffffffffffffffffffff16815260200190815260200160002081905550610739565b80806107319061157e565b91505061056b565b505b505050565b6000606880549050905090565b60008060019054906101000a900460ff1615905080801561077e5750600160008054906101000a900460ff1660ff16105b806107ab575061078d30610ed4565b1580156107aa5750600160008054906101000a900460ff1660ff16145b5b6107ea576040517f08c379a00000000000000000000000000000000000000000000000000000000081526004016107e190611638565b60405180910390fd5b60016000806101000a81548160ff021916908360ff1602179055508015610827576001600060016101000a81548160ff0219169083151502179055505b61082f610ef7565b61083882610dec565b82606960006101000a81548173ffffffffffffffffffffffffffffffffffffffff021916908373ffffffffffffffffffffffffffffffffffffffff160217905550600260678190555080156108da5760008060016101000a81548160ff0219169083151502179055507f7f26b83ff96e1f2b6a682f133852f6798a09c465da95921460cefb384740249860016040516108d191906116a0565b60405180910390a15b505050565b6000806000905060005b606560008573ffffffffffffffffffffffffffffffffffffffff1673ffffffffffffffffffffffffffffffffffffffff168152602001908152602001600020805490508110156109b757606560008573ffffffffffffffffffffffffffffffffffffffff1673ffffffffffffffffffffffffffffffffffffffff168152602001908152602001600020818154811061098457610983611520565b5b906000526020600020906002020160000154826109a191906116bb565b91506001816109b091906116bb565b90506108e9565b5080915050919050565b6109c9610f50565b6109d36000610fce565b565b6000806000905060005b606880549050811015610a5457610a3360688281548110610a0357610a02611520565b5b9060005260206000200160009054906101000a900473ffffffffffffffffffffffffffffffffffffffff166108df565b82610a3e91906116bb565b9150600181610a4d91906116bb565b90506109df565b508091505090565b6000603360009054906101000a900473ffffffffffffffffffffffffffffffffffffffff16905090565b606960009054906101000a900473ffffffffffffffffffffffffffffffffffffffff1673ffffffffffffffffffffffffffffffffffffffff166323b872dd3330846040518463ffffffff1660e01b8152600401610ae5939291906116ef565b6020604051808303816000875af1158015610b04573d6000803e3d6000fd5b505050506040513d601f19601f82011682018060405250810190610b289190611490565b50606560003373ffffffffffffffffffffffffffffffffffffffff1673ffffffffffffffffffffffffffffffffffffffff1681526020019081526020016000206040518060400160405280838152602001428152509080600181540180825580915050600190039060005260206000209060020201600090919091909150600082015181600001556020820151816001015550506068339080600181540180825580915050600190039060005260206000200160009091909190916101000a81548173ffffffffffffffffffffffffffffffffffffffff021916908373ffffffffffffffffffffffffffffffffffffffff160217905550606660003373ffffffffffffffffffffffffffffffffffffffff1673ffffffffffffffffffffffffffffffffffffffff1681526020019081526020016000206000815480929190610c6f9061157e565b919050555050565b60008060009050600042905060005b606560008673ffffffffffffffffffffffffffffffffffffffff1673ffffffffffffffffffffffffffffffffffffffff16815260200190815260200160002080549050811015610de1576000610e10606560008873ffffffffffffffffffffffffffffffffffffffff1673ffffffffffffffffffffffffffffffffffffffff1681526020019081526020016000208381548110610d2657610d25611520565b5b90600052602060002090600202016001015484610d4391906114ec565b610d4d9190611755565b9050606754606560008873ffffffffffffffffffffffffffffffffffffffff1673ffffffffffffffffffffffffffffffffffffffff1681526020019081526020016000208381548110610da357610da2611520565b5b906000526020600020906002020160000154610dbf9190611786565b84610dca91906116bb565b935050600181610dda91906116bb565b9050610c86565b508192505050919050565b610df4610f50565b600073ffffffffffffffffffffffffffffffffffffffff168173ffffffffffffffffffffffffffffffffffffffff1603610e63576040517f08c379a0000000000000000000000000000000000000000000000000000000008152600401610e5a9061183a565b60405180910390fd5b610e6c81610fce565b50565b606960009054906101000a900473ffffffffffffffffffffffffffffffffffffffff1681565b60688181548110610ea557600080fd5b906000526020600020016000915054906101000a900473ffffffffffffffffffffffffffffffffffffffff1681565b6000808273ffffffffffffffffffffffffffffffffffffffff163b119050919050565b600060019054906101000a900460ff16610f46576040517f08c379a0000000000000000000000000000000000000000000000000000000008152600401610f3d906118cc565b60405180910390fd5b610f4e611094565b565b610f586110f5565b73ffffffffffffffffffffffffffffffffffffffff16610f76610a5c565b73ffffffffffffffffffffffffffffffffffffffff1614610fcc576040517f08c379a0000000000000000000000000000000000000000000000000000000008152600401610fc390611938565b60405180910390fd5b565b6000603360009054906101000a900473ffffffffffffffffffffffffffffffffffffffff16905081603360006101000a81548173ffffffffffffffffffffffffffffffffffffffff021916908373ffffffffffffffffffffffffffffffffffffffff1602179055508173ffffffffffffffffffffffffffffffffffffffff168173ffffffffffffffffffffffffffffffffffffffff167f8be0079c531659141344cd1fd0a4f28419497f9722a3daafe3b4186f6b6457e060405160405180910390a35050565b600060019054906101000a900460ff166110e3576040517f08c379a00000000000000000000000000000000000000000000000000000000081526004016110da906118cc565b60405180910390fd5b6110f36110ee6110f5565b610fce565b565b600033905090565b508054600082556002029060005260206000209081019061111e9190611121565b50565b5b8082111561114457600080820160009055600182016000905550600201611122565b5090565b600080fd5b600073ffffffffffffffffffffffffffffffffffffffff82169050919050565b60006111788261114d565b9050919050565b6111888161116d565b811461119357600080fd5b50565b6000813590506111a58161117f565b92915050565b6000602082840312156111c1576111c0611148565b5b60006111cf84828501611196565b91505092915050565b6000819050919050565b6111eb816111d8565b82525050565b600060208201905061120660008301846111e2565b92915050565b611215816111d8565b811461122057600080fd5b50565b6000813590506112328161120c565b92915050565b6000806040838503121561124f5761124e611148565b5b600061125d85828601611196565b925050602061126e85828601611223565b9150509250929050565b600060408201905061128d60008301856111e2565b61129a60208301846111e2565b9392505050565b6000602082840312156112b7576112b6611148565b5b60006112c584828501611223565b91505092915050565b600080604083850312156112e5576112e4611148565b5b60006112f385828601611196565b925050602061130485828601611196565b9150509250929050565b6113178161116d565b82525050565b6000602082019050611332600083018461130e565b92915050565b6000819050919050565b600061135d6113586113538461114d565b611338565b61114d565b9050919050565b600061136f82611342565b9050919050565b600061138182611364565b9050919050565b61139181611376565b82525050565b60006020820190506113ac6000830184611388565b92915050565b600082825260208201905092915050565b7f4e6f7420656e6f7567682062616c616e63650000000000000000000000000000600082015250565b60006113f96012836113b2565b9150611404826113c3565b602082019050919050565b60006020820190508181036000830152611428816113ec565b9050919050565b6000604082019050611444600083018561130e565b61145160208301846111e2565b9392505050565b60008115159050919050565b61146d81611458565b811461147857600080fd5b50565b60008151905061148a81611464565b92915050565b6000602082840312156114a6576114a5611148565b5b60006114b48482850161147b565b91505092915050565b7f4e487b7100000000000000000000000000000000000000000000000000000000600052601160045260246000fd5b60006114f7826111d8565b9150611502836111d8565b925082820390508181111561151a576115196114bd565b5b92915050565b7f4e487b7100000000000000000000000000000000000000000000000000000000600052603260045260246000fd5b7f4e487b7100000000000000000000000000000000000000000000000000000000600052603160045260246000fd5b6000611589826111d8565b91507fffffffffffffffffffffffffffffffffffffffffffffffffffffffffffffffff82036115bb576115ba6114bd565b5b600182019050919050565b7f496e697469616c697a61626c653a20636f6e747261637420697320616c72656160008201527f647920696e697469616c697a6564000000000000000000000000000000000000602082015250565b6000611622602e836113b2565b915061162d826115c6565b604082019050919050565b6000602082019050818103600083015261165181611615565b9050919050565b6000819050919050565b600060ff82169050919050565b600061168a61168561168084611658565b611338565b611662565b9050919050565b61169a8161166f565b82525050565b60006020820190506116b56000830184611691565b92915050565b60006116c6826111d8565b91506116d1836111d8565b92508282019050808211156116e9576116e86114bd565b5b92915050565b6000606082019050611704600083018661130e565b611711602083018561130e565b61171e60408301846111e2565b949350505050565b7f4e487b7100000000000000000000000000000000000000000000000000000000600052601260045260246000fd5b6000611760826111d8565b915061176b836111d8565b92508261177b5761177a611726565b5b828204905092915050565b6000611791826111d8565b915061179c836111d8565b92508282026117aa816111d8565b915082820484148315176117c1576117c06114bd565b5b5092915050565b7f4f776e61626c653a206e6577206f776e657220697320746865207a65726f206160008201527f6464726573730000000000000000000000000000000000000000000000000000602082015250565b60006118246026836113b2565b915061182f826117c8565b604082019050919050565b6000602082019050818103600083015261185381611817565b9050919050565b7f496e697469616c697a61626c653a20636f6e7472616374206973206e6f74206960008201527f6e697469616c697a696e67000000000000000000000000000000000000000000602082015250565b60006118b6602b836113b2565b91506118c18261185a565b604082019050919050565b600060208201905081810360008301526118e5816118a9565b9050919050565b7f4f776e61626c653a2063616c6c6572206973206e6f7420746865206f776e6572600082015250565b60006119226020836113b2565b915061192d826118ec565b602082019050919050565b6000602082019050818103600083015261195181611915565b905091905056fea2646970667358221220cf2ef214b1418b770a2b502df2cf3898ea5600d161c232b5409a927e2606c35b64736f6c63430008110033",
  "linkReferences": {},
  "deployedLinkReferences": {}
}