{
  "_format": "hh-sol-artifact-1",
  "contractName": "StakePINT",
  "sourceName": "contracts/StakePINT.sol",
  "abi": [
    {
      "anonymous": false,
      "inputs": [
        {
          "indexed": true,
          "internalType": "address",
          "name": "user",
          "type": "address"
        },
        {
          "indexed": false,
          "internalType": "uint256",
          "name": "amount",
          "type": "uint256"
        },
        {
          "indexed": false,
          "internalType": "uint256",
          "name": "timestamp",
          "type": "uint256"
        }
      ],
      "name": "Claim",
      "type": "event"
    },
    {
      "anonymous": false,
      "inputs": [
        {
          "indexed": false,
          "internalType": "uint8",
          "name": "version",
          "type": "uint8"
        }
      ],
      "name": "Initialized",
      "type": "event"
    },
    {
      "anonymous": false,
      "inputs": [
        {
          "indexed": true,
          "internalType": "address",
          "name": "previousOwner",
          "type": "address"
        },
        {
          "indexed": true,
          "internalType": "address",
          "name": "newOwner",
          "type": "address"
        }
      ],
      "name": "OwnershipTransferred",
      "type": "event"
    },
    {
      "anonymous": false,
      "inputs": [
        {
          "indexed": true,
          "internalType": "address",
          "name": "user",
          "type": "address"
        },
        {
          "indexed": false,
          "internalType": "uint256",
          "name": "amount",
          "type": "uint256"
        },
        {
          "indexed": false,
          "internalType": "uint256",
          "name": "timestamp",
          "type": "uint256"
        }
      ],
      "name": "Stake",
      "type": "event"
    },
    {
      "anonymous": false,
      "inputs": [
        {
          "indexed": true,
          "internalType": "address",
          "name": "user",
          "type": "address"
        },
        {
          "indexed": false,
          "internalType": "uint256",
          "name": "amount",
          "type": "uint256"
        },
        {
          "indexed": false,
          "internalType": "uint256",
          "name": "timestamp",
          "type": "uint256"
        }
      ],
      "name": "Unstake",
      "type": "event"
    },
    {
      "inputs": [],
      "name": "PINT",
      "outputs": [
        {
          "internalType": "contract ERC20",
          "name": "",
          "type": "address"
        }
      ],
      "stateMutability": "view",
      "type": "function"
    },
    {
      "inputs": [],
      "name": "WHOLE_VE_PINT",
      "outputs": [
        {
          "internalType": "uint256",
          "name": "",
          "type": "uint256"
        }
      ],
      "stateMutability": "view",
      "type": "function"
    },
    {
      "inputs": [
        {
          "internalType": "address",
          "name": "user",
          "type": "address"
        }
      ],
      "name": "amountClaimable",
      "outputs": [
        {
          "internalType": "uint256",
          "name": "",
          "type": "uint256"
        }
      ],
      "stateMutability": "view",
      "type": "function"
    },
    {
      "inputs": [
        {
          "internalType": "address",
          "name": "account",
          "type": "address"
        }
      ],
      "name": "balanceOf",
      "outputs": [
        {
          "internalType": "uint256",
          "name": "",
          "type": "uint256"
        }
      ],
      "stateMutability": "view",
      "type": "function"
    },
    {
      "inputs": [],
      "name": "claim",
      "outputs": [],
      "stateMutability": "nonpayable",
      "type": "function"
    },
    {
      "inputs": [],
      "name": "decimals",
      "outputs": [
        {
          "internalType": "uint8",
          "name": "",
          "type": "uint8"
        }
      ],
      "stateMutability": "pure",
      "type": "function"
    },
    {
      "inputs": [
        {
          "internalType": "address",
          "name": "pintAddress",
          "type": "address"
        },
        {
          "internalType": "address",
          "name": "owner",
          "type": "address"
        }
      ],
      "name": "initialize",
      "outputs": [],
      "stateMutability": "nonpayable",
      "type": "function"
    },
    {
      "inputs": [],
      "name": "maxVePintCapMultiplier",
      "outputs": [
        {
          "internalType": "uint256",
          "name": "",
          "type": "uint256"
        }
      ],
      "stateMutability": "view",
      "type": "function"
    },
    {
      "inputs": [],
      "name": "name",
      "outputs": [
        {
          "internalType": "string",
          "name": "",
          "type": "string"
        }
      ],
      "stateMutability": "pure",
      "type": "function"
    },
    {
      "inputs": [],
      "name": "owner",
      "outputs": [
        {
          "internalType": "address",
          "name": "",
          "type": "address"
        }
      ],
      "stateMutability": "view",
      "type": "function"
    },
    {
      "inputs": [],
      "name": "renounceOwnership",
      "outputs": [],
      "stateMutability": "nonpayable",
      "type": "function"
    },
    {
      "inputs": [
        {
          "internalType": "uint256",
          "name": "_amount",
          "type": "uint256"
        }
      ],
      "name": "stake",
      "outputs": [],
      "stateMutability": "nonpayable",
      "type": "function"
    },
    {
      "inputs": [
        {
          "internalType": "uint256",
          "name": "",
          "type": "uint256"
        }
      ],
      "name": "stakers",
      "outputs": [
        {
          "internalType": "address",
          "name": "",
          "type": "address"
        }
      ],
      "stateMutability": "view",
      "type": "function"
    },
    {
      "inputs": [],
      "name": "stakersLength",
      "outputs": [
        {
          "internalType": "uint256",
          "name": "",
          "type": "uint256"
        }
      ],
      "stateMutability": "view",
      "type": "function"
    },
    {
      "inputs": [],
      "name": "symbol",
      "outputs": [
        {
          "internalType": "string",
          "name": "",
          "type": "string"
        }
      ],
      "stateMutability": "pure",
      "type": "function"
    },
    {
      "inputs": [],
      "name": "totalStaked",
      "outputs": [
        {
          "internalType": "uint256",
          "name": "",
          "type": "uint256"
        }
      ],
      "stateMutability": "view",
      "type": "function"
    },
    {
      "inputs": [],
      "name": "totalSupply",
      "outputs": [
        {
          "internalType": "uint256",
          "name": "",
          "type": "uint256"
        }
      ],
      "stateMutability": "view",
      "type": "function"
    },
    {
      "inputs": [
        {
          "internalType": "address",
          "name": "newOwner",
          "type": "address"
        }
      ],
      "name": "transferOwnership",
      "outputs": [],
      "stateMutability": "nonpayable",
      "type": "function"
    },
    {
      "inputs": [
        {
          "internalType": "uint256",
          "name": "_amount",
          "type": "uint256"
        }
      ],
      "name": "unstake",
      "outputs": [],
      "stateMutability": "nonpayable",
      "type": "function"
    },
    {
      "inputs": [
        {
          "internalType": "address",
          "name": "",
          "type": "address"
        }
      ],
      "name": "users",
      "outputs": [
        {
          "internalType": "uint256",
          "name": "amount",
          "type": "uint256"
        },
        {
          "internalType": "uint256",
          "name": "lastVePintClaimed",
          "type": "uint256"
        }
      ],
      "stateMutability": "view",
      "type": "function"
    },
    {
      "inputs": [],
      "name": "vePintMultiplier",
      "outputs": [
        {
          "internalType": "uint256",
          "name": "",
          "type": "uint256"
        }
      ],
      "stateMutability": "view",
      "type": "function"
    }
  ],
  "bytecode": "0x608060405234801561001057600080fd5b50612008806100206000396000f3fe608060405234801561001057600080fd5b50600436106101375760003560e01c8063715018a6116100b8578063a694fc3a1161007c578063a694fc3a146102f6578063a87430ba14610312578063b3f2682114610343578063f2fde38b14610361578063f736f4221461037d578063fd5e6dd11461039b57610137565b8063715018a614610274578063817b1cd21461027e5780638da5cb5b1461029c57806395d89b41146102ba5780639cf79d12146102d857610137565b80633d4358b1116100ff5780633d4358b1146101e257806343c1255214610200578063485cc9551461021e5780634e71d92d1461023a57806370a082311461024457610137565b806306fdde031461013c57806318160ddd1461015a5780631a4d7092146101785780632e17de78146101a8578063313ce567146101c4575b600080fd5b6101446103cb565b6040516101519190611617565b60405180910390f35b610162610408565b60405161016f9190611652565b60405180910390f35b610192600480360381019061018d91906116d0565b610412565b60405161019f9190611652565b60405180910390f35b6101c260048036038101906101bd9190611729565b610537565b005b6101cc610933565b6040516101d99190611772565b60405180910390f35b6101ea61093c565b6040516101f79190611652565b60405180910390f35b610208610949565b6040516102159190611652565b60405180910390f35b6102386004803603810190610233919061178d565b610955565b005b610242610afc565b005b61025e600480360381019061025991906116d0565b610b07565b60405161026b9190611652565b60405180910390f35b61027c610b50565b005b610286610b64565b6040516102939190611652565b60405180910390f35b6102a4610c25565b6040516102b191906117dc565b60405180910390f35b6102c2610c4f565b6040516102cf9190611617565b60405180910390f35b6102e0610c8c565b6040516102ed9190611652565b60405180910390f35b610310600480360381019061030b9190611729565b610c92565b005b61032c600480360381019061032791906116d0565b610f32565b60405161033a9291906117f7565b60405180910390f35b61034b610f56565b6040516103589190611652565b60405180910390f35b61037b600480360381019061037691906116d0565b610f5c565b005b610385610fdf565b604051610392919061187f565b60405180910390f35b6103b560048036038101906103b09190611729565b611005565b6040516103c291906117dc565b60405180910390f35b60606040518060400160405280600681526020017f766550494e540000000000000000000000000000000000000000000000000000815250905090565b6000606a54905090565b600080606560008473ffffffffffffffffffffffffffffffffffffffff1673ffffffffffffffffffffffffffffffffffffffff168152602001908152602001600020604051806040016040529081600082015481526020016001820154815250509050600081602001514261048791906118c9565b90506000606b54836000015161049d91906118fd565b90506000606960008773ffffffffffffffffffffffffffffffffffffffff1673ffffffffffffffffffffffffffffffffffffffff1681526020019081526020016000205490508082116104f7576000945050505050610532565b6000610507856000015185611044565b90506000828461051791906118c9565b9050808211156105275780610529565b815b96505050505050505b919050565b6000811161057a576040517f08c379a00000000000000000000000000000000000000000000000000000000081526004016105719061198b565b60405180910390fd5b6000606560003373ffffffffffffffffffffffffffffffffffffffff1673ffffffffffffffffffffffffffffffffffffffff16815260200190815260200160002060000154905081811015610604576040517f08c379a00000000000000000000000000000000000000000000000000000000081526004016105fb906119f7565b60405180910390fd5b81606560003373ffffffffffffffffffffffffffffffffffffffff1673ffffffffffffffffffffffffffffffffffffffff168152602001908152602001600020600001600082825461065691906118c9565b9250508190555061066633611099565b6000606560003373ffffffffffffffffffffffffffffffffffffffff1673ffffffffffffffffffffffffffffffffffffffff168152602001908152602001600020600001540361083e5760005b60678054905081101561083c573373ffffffffffffffffffffffffffffffffffffffff16606782815481106106eb576106ea611a17565b5b9060005260206000200160009054906101000a900473ffffffffffffffffffffffffffffffffffffffff1673ffffffffffffffffffffffffffffffffffffffff1603610829576067600160678054905061074591906118c9565b8154811061075657610755611a17565b5b9060005260206000200160009054906101000a900473ffffffffffffffffffffffffffffffffffffffff166067828154811061079557610794611a17565b5b9060005260206000200160006101000a81548173ffffffffffffffffffffffffffffffffffffffff021916908373ffffffffffffffffffffffffffffffffffffffff16021790555060678054806107ef576107ee611a46565b5b6001900381819060005260206000200160006101000a81549073ffffffffffffffffffffffffffffffffffffffff0219169055905561083c565b808061083490611a75565b9150506106b3565b505b606860009054906101000a900473ffffffffffffffffffffffffffffffffffffffff1673ffffffffffffffffffffffffffffffffffffffff1663a9059cbb33846040518363ffffffff1660e01b815260040161089b929190611abd565b6020604051808303816000875af11580156108ba573d6000803e3d6000fd5b505050506040513d601f19601f820116820180604052508101906108de9190611b1e565b503373ffffffffffffffffffffffffffffffffffffffff167ff960dbf9e5d0682f7a298ed974e33a28b4464914b7a2bfac12ae419a9afeb28083426040516109279291906117f7565b60405180910390a25050565b60006012905090565b6000606780549050905090565b670de0b6b3a764000081565b60008060019054906101000a900460ff161590508080156109865750600160008054906101000a900460ff1660ff16105b806109b3575061099530611139565b1580156109b25750600160008054906101000a900460ff1660ff16145b5b6109f2576040517f08c379a00000000000000000000000000000000000000000000000000000000081526004016109e990611bbd565b60405180910390fd5b60016000806101000a81548160ff021916908360ff1602179055508015610a2f576001600060016101000a81548160ff0219169083151502179055505b610a3761115c565b610a4082610f5c565b82606860006101000a81548173ffffffffffffffffffffffffffffffffffffffff021916908373ffffffffffffffffffffffffffffffffffffffff16021790555060026066819055506064606b8190555065038973d73e38606c819055508015610af75760008060016101000a81548160ff0219169083151502179055507f7f26b83ff96e1f2b6a682f133852f6798a09c465da95921460cefb38474024986001604051610aee9190611c18565b60405180910390a15b505050565b610b05336111b5565b565b6000606960008373ffffffffffffffffffffffffffffffffffffffff1673ffffffffffffffffffffffffffffffffffffffff168152602001908152602001600020549050919050565b610b58611267565b610b6260006112e5565b565b6000806000905060005b606780549050811015610c1d576065600060678381548110610b9357610b92611a17565b5b9060005260206000200160009054906101000a900473ffffffffffffffffffffffffffffffffffffffff1673ffffffffffffffffffffffffffffffffffffffff1673ffffffffffffffffffffffffffffffffffffffff1681526020019081526020016000206000015482610c079190611c33565b9150600181610c169190611c33565b9050610b6e565b508091505090565b6000603360009054906101000a900473ffffffffffffffffffffffffffffffffffffffff16905090565b60606040518060400160405280600681526020017f766550494e540000000000000000000000000000000000000000000000000000815250905090565b606b5481565b60008111610cd5576040517f08c379a0000000000000000000000000000000000000000000000000000000008152600401610ccc90611cb3565b60405180910390fd5b610cde336113ab565b15610d4a57610cec336111b5565b80606560003373ffffffffffffffffffffffffffffffffffffffff1673ffffffffffffffffffffffffffffffffffffffff1681526020019081526020016000206000016000828254610d3e9190611c33565b92505081905550610e3c565b80606560003373ffffffffffffffffffffffffffffffffffffffff1673ffffffffffffffffffffffffffffffffffffffff1681526020019081526020016000206000018190555042606560003373ffffffffffffffffffffffffffffffffffffffff1673ffffffffffffffffffffffffffffffffffffffff168152602001908152602001600020600101819055506067339080600181540180825580915050600190039060005260206000200160009091909190916101000a81548173ffffffffffffffffffffffffffffffffffffffff021916908373ffffffffffffffffffffffffffffffffffffffff1602179055505b606860009054906101000a900473ffffffffffffffffffffffffffffffffffffffff1673ffffffffffffffffffffffffffffffffffffffff166323b872dd3330846040518463ffffffff1660e01b8152600401610e9b93929190611cd3565b6020604051808303816000875af1158015610eba573d6000803e3d6000fd5b505050506040513d601f19601f82011682018060405250810190610ede9190611b1e565b503373ffffffffffffffffffffffffffffffffffffffff167f5af417134f72a9d41143ace85b0a26dce6f550f894f2cbc1eeee8810603d91b68242604051610f279291906117f7565b60405180910390a250565b60656020528060005260406000206000915090508060000154908060010154905082565b606c5481565b610f64611267565b600073ffffffffffffffffffffffffffffffffffffffff168173ffffffffffffffffffffffffffffffffffffffff1603610fd3576040517f08c379a0000000000000000000000000000000000000000000000000000000008152600401610fca90611d7c565b60405180910390fd5b610fdc816112e5565b50565b606860009054906101000a900473ffffffffffffffffffffffffffffffffffffffff1681565b6067818154811061101557600080fd5b906000526020600020016000915054906101000a900473ffffffffffffffffffffffffffffffffffffffff1681565b6000670de0b6b3a76400006002670de0b6b3a76400006110649190611dcb565b606c54848661107391906118fd565b61107d91906118fd565b6110879190611c33565b6110919190611dcb565b905092915050565b606960008273ffffffffffffffffffffffffffffffffffffffff1673ffffffffffffffffffffffffffffffffffffffff16815260200190815260200160002054606a60008282546110ea91906118c9565b925050819055506000606960008373ffffffffffffffffffffffffffffffffffffffff1673ffffffffffffffffffffffffffffffffffffffff1681526020019081526020016000208190555050565b6000808273ffffffffffffffffffffffffffffffffffffffff163b119050919050565b600060019054906101000a900460ff166111ab576040517f08c379a00000000000000000000000000000000000000000000000000000000081526004016111a290611e6e565b60405180910390fd5b6111b36113f9565b565b60006111c082610412565b905042606560008473ffffffffffffffffffffffffffffffffffffffff1673ffffffffffffffffffffffffffffffffffffffff16815260200190815260200160002060010181905550611213828261145a565b8173ffffffffffffffffffffffffffffffffffffffff167f34fcbac0073d7c3d388e51312faf357774904998eeb8fca628b9e6f65ee1cbf7824260405161125b9291906117f7565b60405180910390a25050565b61126f61157f565b73ffffffffffffffffffffffffffffffffffffffff1661128d610c25565b73ffffffffffffffffffffffffffffffffffffffff16146112e3576040517f08c379a00000000000000000000000000000000000000000000000000000000081526004016112da90611eda565b60405180910390fd5b565b6000603360009054906101000a900473ffffffffffffffffffffffffffffffffffffffff16905081603360006101000a81548173ffffffffffffffffffffffffffffffffffffffff021916908373ffffffffffffffffffffffffffffffffffffffff1602179055508173ffffffffffffffffffffffffffffffffffffffff168173ffffffffffffffffffffffffffffffffffffffff167f8be0079c531659141344cd1fd0a4f28419497f9722a3daafe3b4186f6b6457e060405160405180910390a35050565b600080606560008473ffffffffffffffffffffffffffffffffffffffff1673ffffffffffffffffffffffffffffffffffffffff16815260200190815260200160002060000154119050919050565b600060019054906101000a900460ff16611448576040517f08c379a000000000000000000000000000000000000000000000000000000000815260040161143f90611e6e565b60405180910390fd5b61145861145361157f565b6112e5565b565b600073ffffffffffffffffffffffffffffffffffffffff168273ffffffffffffffffffffffffffffffffffffffff16036114c9576040517f08c379a00000000000000000000000000000000000000000000000000000000081526004016114c090611f46565b60405180910390fd5b6000811161150c576040517f08c379a000000000000000000000000000000000000000000000000000000000815260040161150390611fb2565b60405180910390fd5b80606a600082825461151e9190611c33565b9250508190555080606960008473ffffffffffffffffffffffffffffffffffffffff1673ffffffffffffffffffffffffffffffffffffffff16815260200190815260200160002060008282546115749190611c33565b925050819055505050565b600033905090565b600081519050919050565b600082825260208201905092915050565b60005b838110156115c15780820151818401526020810190506115a6565b60008484015250505050565b6000601f19601f8301169050919050565b60006115e982611587565b6115f38185611592565b93506116038185602086016115a3565b61160c816115cd565b840191505092915050565b6000602082019050818103600083015261163181846115de565b905092915050565b6000819050919050565b61164c81611639565b82525050565b60006020820190506116676000830184611643565b92915050565b600080fd5b600073ffffffffffffffffffffffffffffffffffffffff82169050919050565b600061169d82611672565b9050919050565b6116ad81611692565b81146116b857600080fd5b50565b6000813590506116ca816116a4565b92915050565b6000602082840312156116e6576116e561166d565b5b60006116f4848285016116bb565b91505092915050565b61170681611639565b811461171157600080fd5b50565b600081359050611723816116fd565b92915050565b60006020828403121561173f5761173e61166d565b5b600061174d84828501611714565b91505092915050565b600060ff82169050919050565b61176c81611756565b82525050565b60006020820190506117876000830184611763565b92915050565b600080604083850312156117a4576117a361166d565b5b60006117b2858286016116bb565b92505060206117c3858286016116bb565b9150509250929050565b6117d681611692565b82525050565b60006020820190506117f160008301846117cd565b92915050565b600060408201905061180c6000830185611643565b6118196020830184611643565b9392505050565b6000819050919050565b600061184561184061183b84611672565b611820565b611672565b9050919050565b60006118578261182a565b9050919050565b60006118698261184c565b9050919050565b6118798161185e565b82525050565b60006020820190506118946000830184611870565b92915050565b7f4e487b7100000000000000000000000000000000000000000000000000000000600052601160045260246000fd5b60006118d482611639565b91506118df83611639565b92508282039050818111156118f7576118f661189a565b5b92915050565b600061190882611639565b915061191383611639565b925082820261192181611639565b915082820484148315176119385761193761189a565b5b5092915050565b7f616d6f756e74206d757374206e6f74206265207a65726f000000000000000000600082015250565b6000611975601783611592565b91506119808261193f565b602082019050919050565b600060208201905081810360008301526119a481611968565b9050919050565b7f6e6f7420656e6f75676820746f20756e7374616b650000000000000000000000600082015250565b60006119e1601583611592565b91506119ec826119ab565b602082019050919050565b60006020820190508181036000830152611a10816119d4565b9050919050565b7f4e487b7100000000000000000000000000000000000000000000000000000000600052603260045260246000fd5b7f4e487b7100000000000000000000000000000000000000000000000000000000600052603160045260246000fd5b6000611a8082611639565b91507fffffffffffffffffffffffffffffffffffffffffffffffffffffffffffffffff8203611ab257611ab161189a565b5b600182019050919050565b6000604082019050611ad260008301856117cd565b611adf6020830184611643565b9392505050565b60008115159050919050565b611afb81611ae6565b8114611b0657600080fd5b50565b600081519050611b1881611af2565b92915050565b600060208284031215611b3457611b3361166d565b5b6000611b4284828501611b09565b91505092915050565b7f496e697469616c697a61626c653a20636f6e747261637420697320616c72656160008201527f647920696e697469616c697a6564000000000000000000000000000000000000602082015250565b6000611ba7602e83611592565b9150611bb282611b4b565b604082019050919050565b60006020820190508181036000830152611bd681611b9a565b9050919050565b6000819050919050565b6000611c02611bfd611bf884611bdd565b611820565b611756565b9050919050565b611c1281611be7565b82525050565b6000602082019050611c2d6000830184611c09565b92915050565b6000611c3e82611639565b9150611c4983611639565b9250828201905080821115611c6157611c6061189a565b5b92915050565b7f616d6f756e7420746f207374616b652063616e6e6f74206265207a65726f0000600082015250565b6000611c9d601e83611592565b9150611ca882611c67565b602082019050919050565b60006020820190508181036000830152611ccc81611c90565b9050919050565b6000606082019050611ce860008301866117cd565b611cf560208301856117cd565b611d026040830184611643565b949350505050565b7f4f776e61626c653a206e6577206f776e657220697320746865207a65726f206160008201527f6464726573730000000000000000000000000000000000000000000000000000602082015250565b6000611d66602683611592565b9150611d7182611d0a565b604082019050919050565b60006020820190508181036000830152611d9581611d59565b9050919050565b7f4e487b7100000000000000000000000000000000000000000000000000000000600052601260045260246000fd5b6000611dd682611639565b9150611de183611639565b925082611df157611df0611d9c565b5b828204905092915050565b7f496e697469616c697a61626c653a20636f6e7472616374206973206e6f74206960008201527f6e697469616c697a696e67000000000000000000000000000000000000000000602082015250565b6000611e58602b83611592565b9150611e6382611dfc565b604082019050919050565b60006020820190508181036000830152611e8781611e4b565b9050919050565b7f4f776e61626c653a2063616c6c6572206973206e6f7420746865206f776e6572600082015250565b6000611ec4602083611592565b9150611ecf82611e8e565b602082019050919050565b60006020820190508181036000830152611ef381611eb7565b9050919050565b7f63616e6e6f74206d696e7420666f72207a65726f206164647265737300000000600082015250565b6000611f30601c83611592565b9150611f3b82611efa565b602082019050919050565b60006020820190508181036000830152611f5f81611f23565b9050919050565b7f63616e6e6f74206d696e74203000000000000000000000000000000000000000600082015250565b6000611f9c600d83611592565b9150611fa782611f66565b602082019050919050565b60006020820190508181036000830152611fcb81611f8f565b905091905056fea2646970667358221220c8d1d3ecf663ddece13cb881354bb66ea844980f171230b3974041d5fc05735864736f6c63430008110033",
  "linkReferences": {},
  "deployedLinkReferences": {}
}