{
  "_format": "hh-sol-artifact-1",
  "contractName": "Bartender",
  "sourceName": "contracts/Bartender.sol",
  "abi": [
    {
      "anonymous": false,
      "inputs": [
        {
          "indexed": true,
          "internalType": "address",
          "name": "user",
          "type": "address"
        },
        {
          "indexed": true,
          "internalType": "uint256",
          "name": "pid",
          "type": "uint256"
        },
        {
          "indexed": false,
          "internalType": "uint256",
          "name": "amount",
          "type": "uint256"
        }
      ],
      "name": "Deposit",
      "type": "event"
    },
    {
      "anonymous": false,
      "inputs": [
        {
          "indexed": true,
          "internalType": "address",
          "name": "user",
          "type": "address"
        },
        {
          "indexed": true,
          "internalType": "uint256",
          "name": "pid",
          "type": "uint256"
        },
        {
          "indexed": false,
          "internalType": "uint256",
          "name": "amount",
          "type": "uint256"
        }
      ],
      "name": "EmergencyWithdraw",
      "type": "event"
    },
    {
      "anonymous": false,
      "inputs": [
        {
          "indexed": true,
          "internalType": "address",
          "name": "previousOwner",
          "type": "address"
        },
        {
          "indexed": true,
          "internalType": "address",
          "name": "newOwner",
          "type": "address"
        }
      ],
      "name": "OwnershipTransferred",
      "type": "event"
    },
    {
      "anonymous": false,
      "inputs": [
        {
          "indexed": true,
          "internalType": "address",
          "name": "user",
          "type": "address"
        },
        {
          "indexed": true,
          "internalType": "uint256",
          "name": "pid",
          "type": "uint256"
        },
        {
          "indexed": false,
          "internalType": "uint256",
          "name": "amount",
          "type": "uint256"
        }
      ],
      "name": "Withdraw",
      "type": "event"
    },
    {
      "inputs": [],
      "name": "OWNER_FEE_DENOMINATOR",
      "outputs": [
        {
          "internalType": "uint256",
          "name": "",
          "type": "uint256"
        }
      ],
      "stateMutability": "view",
      "type": "function"
    },
    {
      "inputs": [],
      "name": "OWNER_FEE_NUMERATOR",
      "outputs": [
        {
          "internalType": "uint256",
          "name": "",
          "type": "uint256"
        }
      ],
      "stateMutability": "view",
      "type": "function"
    },
    {
      "inputs": [],
      "name": "PUB_MAX",
      "outputs": [
        {
          "internalType": "uint256",
          "name": "",
          "type": "uint256"
        }
      ],
      "stateMutability": "view",
      "type": "function"
    },
    {
      "inputs": [],
      "name": "accumulatedTax",
      "outputs": [
        {
          "internalType": "uint256",
          "name": "",
          "type": "uint256"
        }
      ],
      "stateMutability": "view",
      "type": "function"
    },
    {
      "inputs": [
        {
          "internalType": "uint256",
          "name": "_allocPoint",
          "type": "uint256"
        },
        {
          "internalType": "contract IERC20",
          "name": "_lpToken",
          "type": "address"
        },
        {
          "internalType": "bool",
          "name": "_withUpdate",
          "type": "bool"
        }
      ],
      "name": "add",
      "outputs": [],
      "stateMutability": "nonpayable",
      "type": "function"
    },
    {
      "inputs": [
        {
          "internalType": "uint256",
          "name": "_pid",
          "type": "uint256"
        },
        {
          "internalType": "uint256",
          "name": "_amount",
          "type": "uint256"
        },
        {
          "internalType": "enum Bartender.LockType",
          "name": "lockType",
          "type": "uint8"
        }
      ],
      "name": "deposit",
      "outputs": [],
      "stateMutability": "nonpayable",
      "type": "function"
    },
    {
      "inputs": [
        {
          "internalType": "uint256",
          "name": "_pid",
          "type": "uint256"
        }
      ],
      "name": "emergencyWithdraw",
      "outputs": [],
      "stateMutability": "nonpayable",
      "type": "function"
    },
    {
      "inputs": [
        {
          "internalType": "uint256",
          "name": "_from",
          "type": "uint256"
        },
        {
          "internalType": "uint256",
          "name": "_to",
          "type": "uint256"
        }
      ],
      "name": "getMultiplier",
      "outputs": [
        {
          "internalType": "uint256",
          "name": "",
          "type": "uint256"
        }
      ],
      "stateMutability": "view",
      "type": "function"
    },
    {
      "inputs": [],
      "name": "getPubPerBlock",
      "outputs": [
        {
          "internalType": "uint256",
          "name": "",
          "type": "uint256"
        }
      ],
      "stateMutability": "view",
      "type": "function"
    },
    {
      "inputs": [
        {
          "internalType": "uint256",
          "name": "_pid",
          "type": "uint256"
        },
        {
          "internalType": "address",
          "name": "_address",
          "type": "address"
        }
      ],
      "name": "getUserInfo",
      "outputs": [
        {
          "internalType": "uint256",
          "name": "",
          "type": "uint256"
        }
      ],
      "stateMutability": "view",
      "type": "function"
    },
    {
      "inputs": [
        {
          "internalType": "uint256",
          "name": "_pid",
          "type": "uint256"
        },
        {
          "internalType": "address",
          "name": "_address",
          "type": "address"
        }
      ],
      "name": "getUserInfoLocked",
      "outputs": [
        {
          "internalType": "uint256",
          "name": "",
          "type": "uint256"
        }
      ],
      "stateMutability": "view",
      "type": "function"
    },
    {
      "inputs": [
        {
          "internalType": "uint256",
          "name": "_tax",
          "type": "uint256"
        },
        {
          "internalType": "uint256",
          "name": "_devTax",
          "type": "uint256"
        }
      ],
      "name": "handleTaxDistribution",
      "outputs": [],
      "stateMutability": "nonpayable",
      "type": "function"
    },
    {
      "inputs": [
        {
          "internalType": "uint256",
          "name": "_pid",
          "type": "uint256"
        }
      ],
      "name": "harvest",
      "outputs": [],
      "stateMutability": "nonpayable",
      "type": "function"
    },
    {
      "inputs": [
        {
          "internalType": "uint256",
          "name": "_startBlock",
          "type": "uint256"
        },
        {
          "internalType": "address",
          "name": "_oldPub",
          "type": "address"
        },
        {
          "internalType": "address",
          "name": "_pub2",
          "type": "address"
        },
        {
          "internalType": "address",
          "name": "_pub",
          "type": "address"
        }
      ],
      "name": "initialize",
      "outputs": [],
      "stateMutability": "nonpayable",
      "type": "function"
    },
    {
      "inputs": [
        {
          "internalType": "address",
          "name": "",
          "type": "address"
        }
      ],
      "name": "lockedForeverLP",
      "outputs": [
        {
          "internalType": "uint256",
          "name": "",
          "type": "uint256"
        }
      ],
      "stateMutability": "view",
      "type": "function"
    },
    {
      "inputs": [
        {
          "internalType": "uint256",
          "name": "_amount",
          "type": "uint256"
        }
      ],
      "name": "massUpdateLPTaxAllocationForPools",
      "outputs": [],
      "stateMutability": "nonpayable",
      "type": "function"
    },
    {
      "inputs": [],
      "name": "massUpdatePools",
      "outputs": [],
      "stateMutability": "nonpayable",
      "type": "function"
    },
    {
      "inputs": [],
      "name": "massUpdateTaxAllocationForPools",
      "outputs": [],
      "stateMutability": "nonpayable",
      "type": "function"
    },
    {
      "inputs": [],
      "name": "myPubTokenBalance",
      "outputs": [
        {
          "internalType": "uint256",
          "name": "",
          "type": "uint256"
        }
      ],
      "stateMutability": "view",
      "type": "function"
    },
    {
      "inputs": [],
      "name": "owner",
      "outputs": [
        {
          "internalType": "address",
          "name": "",
          "type": "address"
        }
      ],
      "stateMutability": "view",
      "type": "function"
    },
    {
      "inputs": [
        {
          "internalType": "uint256",
          "name": "_pid",
          "type": "uint256"
        },
        {
          "internalType": "address",
          "name": "_user",
          "type": "address"
        }
      ],
      "name": "pendingLockedPubs",
      "outputs": [
        {
          "internalType": "uint256",
          "name": "",
          "type": "uint256"
        }
      ],
      "stateMutability": "view",
      "type": "function"
    },
    {
      "inputs": [
        {
          "internalType": "uint256",
          "name": "_pid",
          "type": "uint256"
        },
        {
          "internalType": "address",
          "name": "_user",
          "type": "address"
        }
      ],
      "name": "pendingPubs",
      "outputs": [
        {
          "internalType": "uint256",
          "name": "",
          "type": "uint256"
        }
      ],
      "stateMutability": "view",
      "type": "function"
    },
    {
      "inputs": [
        {
          "internalType": "uint256",
          "name": "",
          "type": "uint256"
        }
      ],
      "name": "poolInfo",
      "outputs": [
        {
          "internalType": "contract IERC20",
          "name": "lpToken",
          "type": "address"
        },
        {
          "internalType": "uint256",
          "name": "allocPoint",
          "type": "uint256"
        },
        {
          "internalType": "uint256",
          "name": "lastRewardBlock",
          "type": "uint256"
        },
        {
          "internalType": "uint256",
          "name": "accPubPerShare",
          "type": "uint256"
        },
        {
          "internalType": "uint256",
          "name": "accTaxPubPerShare",
          "type": "uint256"
        },
        {
          "internalType": "uint256",
          "name": "accLPTaxPubPerShare",
          "type": "uint256"
        },
        {
          "internalType": "uint256",
          "name": "accTokensForTax",
          "type": "uint256"
        },
        {
          "internalType": "uint256",
          "name": "accTokensForLPTax",
          "type": "uint256"
        }
      ],
      "stateMutability": "view",
      "type": "function"
    },
    {
      "inputs": [],
      "name": "poolLength",
      "outputs": [
        {
          "internalType": "uint256",
          "name": "",
          "type": "uint256"
        }
      ],
      "stateMutability": "view",
      "type": "function"
    },
    {
      "inputs": [],
      "name": "pub",
      "outputs": [
        {
          "internalType": "contract PubToken",
          "name": "",
          "type": "address"
        }
      ],
      "stateMutability": "view",
      "type": "function"
    },
    {
      "inputs": [
        {
          "internalType": "address",
          "name": "a",
          "type": "address"
        }
      ],
      "name": "pubBalance",
      "outputs": [
        {
          "internalType": "uint256",
          "name": "",
          "type": "uint256"
        }
      ],
      "stateMutability": "view",
      "type": "function"
    },
    {
      "inputs": [],
      "name": "pubOwner",
      "outputs": [
        {
          "internalType": "address",
          "name": "",
          "type": "address"
        }
      ],
      "stateMutability": "view",
      "type": "function"
    },
    {
      "inputs": [],
      "name": "pubPerBlock",
      "outputs": [
        {
          "internalType": "uint256",
          "name": "",
          "type": "uint256"
        }
      ],
      "stateMutability": "view",
      "type": "function"
    },
    {
      "inputs": [],
      "name": "pubToken",
      "outputs": [
        {
          "internalType": "address",
          "name": "",
          "type": "address"
        }
      ],
      "stateMutability": "view",
      "type": "function"
    },
    {
      "inputs": [],
      "name": "renounceOwnership",
      "outputs": [],
      "stateMutability": "nonpayable",
      "type": "function"
    },
    {
      "inputs": [
        {
          "internalType": "uint256",
          "name": "_pid",
          "type": "uint256"
        },
        {
          "internalType": "uint256",
          "name": "_allocPoint",
          "type": "uint256"
        },
        {
          "internalType": "bool",
          "name": "_withUpdate",
          "type": "bool"
        }
      ],
      "name": "set",
      "outputs": [],
      "stateMutability": "nonpayable",
      "type": "function"
    },
    {
      "inputs": [
        {
          "internalType": "uint256",
          "name": "_max",
          "type": "uint256"
        }
      ],
      "name": "setPubMax",
      "outputs": [],
      "stateMutability": "nonpayable",
      "type": "function"
    },
    {
      "inputs": [
        {
          "internalType": "uint256",
          "name": "_pubPerBlock",
          "type": "uint256"
        }
      ],
      "name": "setPubPerBlock",
      "outputs": [],
      "stateMutability": "nonpayable",
      "type": "function"
    },
    {
      "inputs": [
        {
          "internalType": "uint256",
          "name": "_pid",
          "type": "uint256"
        }
      ],
      "name": "sizeOfPidArr",
      "outputs": [
        {
          "internalType": "uint256",
          "name": "",
          "type": "uint256"
        }
      ],
      "stateMutability": "view",
      "type": "function"
    },
    {
      "inputs": [],
      "name": "startBlock",
      "outputs": [
        {
          "internalType": "uint256",
          "name": "",
          "type": "uint256"
        }
      ],
      "stateMutability": "view",
      "type": "function"
    },
    {
      "inputs": [
        {
          "internalType": "uint256",
          "name": "_amount",
          "type": "uint256"
        }
      ],
      "name": "swapPub2ForPub3",
      "outputs": [],
      "stateMutability": "nonpayable",
      "type": "function"
    },
    {
      "inputs": [
        {
          "internalType": "uint256",
          "name": "_amount",
          "type": "uint256"
        }
      ],
      "name": "swapPubForPub3",
      "outputs": [],
      "stateMutability": "nonpayable",
      "type": "function"
    },
    {
      "inputs": [],
      "name": "totalAllocPoint",
      "outputs": [
        {
          "internalType": "uint256",
          "name": "",
          "type": "uint256"
        }
      ],
      "stateMutability": "view",
      "type": "function"
    },
    {
      "inputs": [
        {
          "internalType": "address",
          "name": "newOwner",
          "type": "address"
        }
      ],
      "name": "transferOwnership",
      "outputs": [],
      "stateMutability": "nonpayable",
      "type": "function"
    },
    {
      "inputs": [
        {
          "internalType": "uint256",
          "name": "_pid",
          "type": "uint256"
        }
      ],
      "name": "updatePool",
      "outputs": [],
      "stateMutability": "nonpayable",
      "type": "function"
    },
    {
      "inputs": [
        {
          "internalType": "uint256",
          "name": "",
          "type": "uint256"
        },
        {
          "internalType": "address",
          "name": "",
          "type": "address"
        },
        {
          "internalType": "uint256",
          "name": "",
          "type": "uint256"
        }
      ],
      "name": "userInfo",
      "outputs": [
        {
          "internalType": "uint256",
          "name": "amount",
          "type": "uint256"
        },
        {
          "internalType": "uint256",
          "name": "rewardDebt",
          "type": "uint256"
        },
        {
          "internalType": "enum Bartender.LockType",
          "name": "lockType",
          "type": "uint8"
        },
        {
          "internalType": "uint256",
          "name": "unlockDate",
          "type": "uint256"
        },
        {
          "internalType": "uint256",
          "name": "taxRewardDebt",
          "type": "uint256"
        },
        {
          "internalType": "uint256",
          "name": "lpTaxRewardDebt",
          "type": "uint256"
        }
      ],
      "stateMutability": "view",
      "type": "function"
    },
    {
      "inputs": [
        {
          "internalType": "uint256",
          "name": "_pid",
          "type": "uint256"
        }
      ],
      "name": "withdrawMax",
      "outputs": [],
      "stateMutability": "nonpayable",
      "type": "function"
    }
  ],
  "bytecode": "0x608060405234801561001057600080fd5b5061311c806100206000396000f3fe608060405234801561001057600080fd5b50600436106102de5760003560e01c806364482f7911610186578063a36d60e8116100e3578063be17dc3a11610097578063ed0c500c11610071578063ed0c500c14610747578063f2fde38b14610764578063f9c0a3c31461078a576102de565b8063be17dc3a146106ac578063ddc63262146106b4578063deb019bd146106d1576102de565b8063aa2a7c4c116100c8578063aa2a7c4c1461067f578063ae27360d1461069c578063ba69f97f146106a4576102de565b8063a36d60e81461063c578063a8f7670714610659576102de565b80638da5cb5b1161013a5780638e6e65071161011f5780638e6e6507146105fa578063922b1ba71461060257806392c9ad831461061f576102de565b80638da5cb5b146105cf5780638dbb1e3a146105d7576102de565b8063715018a61161016b578063715018a614610581578063754d1d54146105895780637defb410146105c7576102de565b806364482f791461052a57806364cd9c3f14610555576102de565b8063206817131161023f5780635312ea8e116101f357806360458418116101cd5780636045841814610512578063630b5ba11461051a578063634cd37a14610522576102de565b80635312ea8e146104c95780635439ef80146104e657806356c449c21461050a576102de565b80633405734611610224578063340573461461049557806348cd4cb1146104c157806351eb05a6146103bd576102de565b8063206817131461046a5780632a2071a81461048d576102de565b8063172ef4e21161029657806319ba83a51161027b57806319ba83a51461040a5780631eaaa045146104365780631fa21801146103bd576102de565b8063172ef4e2146103dc57806317caf6f114610402576102de565b80631069f3b5116102c75780631069f3b5146103295780631526fe271461035557806316b3d2dd146103bd576102de565b8063081e3eda146102e35780630cf9559d146102fd575b600080fd5b6102eb610792565b60408051918252519081900360200190f35b6102eb6004803603604081101561031357600080fd5b50803590602001356001600160a01b0316610798565b6102eb6004803603604081101561033f57600080fd5b50803590602001356001600160a01b0316610826565b6103726004803603602081101561036b57600080fd5b5035610886565b604080516001600160a01b0390991689526020890197909752878701959095526060870193909352608086019190915260a085015260c084015260e083015251908190036101000190f35b6103da600480360360208110156103d357600080fd5b50356108e3565b005b6102eb600480360360208110156103f257600080fd5b50356001600160a01b03166108e6565b6102eb6108f8565b6103da6004803603606081101561042057600080fd5b508035906020810135906040013560ff166108fe565b6103da6004803603606081101561044c57600080fd5b508035906001600160a01b0360208201351690604001351515610bfc565b6103da6004803603604081101561048057600080fd5b5080359060200135610e3e565b6102eb610f21565b6102eb600480360360408110156104ab57600080fd5b50803590602001356001600160a01b0316610f9d565b6102eb61121d565b6103da600480360360208110156104df57600080fd5b5035611223565b6104ee61143f565b604080516001600160a01b039092168252519081900360200190f35b6102eb61144e565b6102eb611454565b6103da611459565b6102eb61147c565b6103da6004803603606081101561054057600080fd5b50803590602081013590604001351515611482565b6102eb6004803603604081101561056b57600080fd5b50803590602001356001600160a01b0316611565565b6103da6117d0565b6103da6004803603608081101561059f57600080fd5b508035906001600160a01b036020820135811691604081013582169160609091013516611884565b6104ee6118de565b6104ee6118ed565b6102eb600480360360408110156105ed57600080fd5b50803590602001356118fc565b6102eb61190f565b6103da6004803603602081101561061857600080fd5b5035611915565b6103da6004803603602081101561063557600080fd5b5035611984565b6102eb6004803603602081101561065257600080fd5b5035611a9a565b6102eb6004803603602081101561066f57600080fd5b50356001600160a01b0316611ab7565b6103da6004803603602081101561069557600080fd5b5035611b3a565b6102eb612101565b6103da612107565b6104ee61225c565b6103da600480360360208110156106ca57600080fd5b50356122ba565b610703600480360360608110156106e757600080fd5b508035906001600160a01b0360208201351690604001356124c6565b6040518087815260200186815260200185600481111561071f57fe5b8152602001848152602001838152602001828152602001965050505050505060405180910390f35b6103da6004803603602081101561075d57600080fd5b5035612527565b6103da6004803603602081101561077a57600080fd5b50356001600160a01b03166125f3565b6102eb6126fe565b60995490565b6000828152609a602090815260408083206001600160a01b03851684529091528120805482805b8281101561081a5760008482815481106107d557fe5b90600052602060002090600602019050600081600001541180156107fc5750428160030154115b1561081157805461080e908490612704565b92505b506001016107bf565b50925050505b92915050565b6000828152609a602090815260408083206001600160a01b03851684529091528120805482805b8281101561081a5761087c84828154811061086457fe5b60009182526020909120600690910201548390612704565b915060010161084d565b6099818154811061089357fe5b6000918252602090912060089091020180546001820154600283015460038401546004850154600586015460068701546007909701546001600160a01b0390961697509395929491939092909188565b50565b609e6020526000908152604090205481565b609b5481565b60006099848154811061090d57fe5b90600052602060002090600802019050610926846108e3565b8215610bf6578054610943906001600160a01b031633308661275e565b61094b612fde565b6040518060c001604052808581526020016000815260200184600481111561096f57fe5b81526000602082018190526040820181905260609091015284815260038301549091506109ae9064e8d4a51000906109a89087906127cd565b90612826565b6020820152604081018360048111156109c357fe5b908160048111156109d057fe5b905250600482015481516109ee9164e8d4a51000916109a8916127cd565b608082015260058201548151610a0e9164e8d4a51000916109a8916127cd565b60a08201526001836004811115610a2157fe5b1415610a37576203f48042016060820152610b3d565b6002836004811115610a4557fe5b1415610a6f5762093a80420160608201526006820154610a659085612704565b6006830155610b3d565b6003836004811115610a7d57fe5b1415610ab15762278d00420160608201526007820154610a9d9085612704565b60078301556006820154610a659085612704565b6004836004811115610abf57fe5b1415610b36574260608201526007820154610ada9085612704565b60078301556006820154610aee9085612704565b600683015581546001600160a01b03166000908152609e6020526040902054610b179085612704565b82546001600160a01b03166000908152609e6020526040902055610b3d565b4260608201525b6000858152609a602090815260408083203384528252808320805460018181018355918552938390208551600690950201938455918401518383015583015160028301805485949360ff1990911690836004811115610b9857fe5b0217905550606082015160038201556080820151600482015560a090910151600590910155604080518581529051869133917f90890809c654f11d6e72a28fa60149770a0d11ec6c92319d6ceb2bb0a4ea1a159181900360200190a3505b50505050565b610c04612868565b6065546001600160a01b03908116911614610c66576040805162461bcd60e51b815260206004820181905260248201527f4f776e61626c653a2063616c6c6572206973206e6f7420746865206f776e6572604482015290519081900360640190fd5b8015610c7457610c74611459565b6000609c544311610c8757609c54610c89565b435b609b54909150610c999085612704565b609b5560408051610100810182526001600160a01b039485168152602081019586529081019182526000606082018181526080830182815260a0840183815260c0850184815260e0860185815260998054600181018255965295517f72a152ddfb8e864297c917af52ea6c1c68aead0fee1a62673fcc7e0c94979d00600890960295860180546001600160a01b03191691909a161790985597517f72a152ddfb8e864297c917af52ea6c1c68aead0fee1a62673fcc7e0c94979d0184015593517f72a152ddfb8e864297c917af52ea6c1c68aead0fee1a62673fcc7e0c94979d02830155517f72a152ddfb8e864297c917af52ea6c1c68aead0fee1a62673fcc7e0c94979d0382015591517f72a152ddfb8e864297c917af52ea6c1c68aead0fee1a62673fcc7e0c94979d0483015593517f72a152ddfb8e864297c917af52ea6c1c68aead0fee1a62673fcc7e0c94979d0582015591517f72a152ddfb8e864297c917af52ea6c1c68aead0fee1a62673fcc7e0c94979d068301555090517f72a152ddfb8e864297c917af52ea6c1c68aead0fee1a62673fcc7e0c94979d0790910155565b6097546001600160a01b03163314610e875760405162461bcd60e51b81526004018080602001828103825260288152602001806130466028913960400191505060405180910390fd5b609d54610e949083612704565b609d556097546001600160a01b031663a9059cbb610eb06118ed565b836040518363ffffffff1660e01b815260040180836001600160a01b0316815260200182815260200192505050602060405180830381600087803b158015610ef757600080fd5b505af1158015610f0b573d6000803e3d6000fd5b505050506040513d6020811015610bf657600080fd5b609754604080516370a0823160e01b815233600482015290516000926001600160a01b0316916370a08231916024808301926020929190829003018186803b158015610f6c57600080fd5b505afa158015610f80573d6000803e3d6000fd5b505050506040513d6020811015610f9657600080fd5b5051905090565b60008060998481548110610fad57fe5b60009182526020808320878452609a825260408085206001600160a01b03898116875290845281862080546008969096029093016003810154815484516370a0823160e01b81523060048201529451929950949795909486949316926370a082319260248083019392829003018186803b15801561102a57600080fd5b505afa15801561103e573d6000803e3d6000fd5b505050506040513d602081101561105457600080fd5b505160028701549091504311801561106b57508015155b156110d15760006110808760020154436118fc565b905060006110ad609b546109a88a600101546110a7609854876127cd90919063ffffffff16565b906127cd565b90506110cc6110c5846109a88464e8d4a510006127cd565b8590612704565b935050505b60005b8481101561120f5760008682815481106110ea57fe5b9060005260206000209060060201905060008160000154118015611112575042816003015411155b15611206576000611147826001015461114164e8d4a510006109a88987600001546127cd90919063ffffffff16565b9061286c565b90506111538682612704565b955060028083015460ff16600481111561116957fe5b106111ac57600061119c836004015461114164e8d4a510006109a88e6004015488600001546127cd90919063ffffffff16565b90506111a88782612704565b9650505b6003600283015460ff1660048111156111c157fe5b106112045760006111f4836005015461114164e8d4a510006109a88e6005015488600001546127cd90919063ffffffff16565b90506112008782612704565b9650505b505b506001016110d4565b509198975050505050505050565b609c5481565b60006099828154811061123257fe5b60009182526020808320858452609a825260408085203386529092529083208054600890930290910193509180805b838110156113cc57600085828154811061127757fe5b906000526020600020906006020190506000816000015411801561129f575042816003015411155b80156112be57506004600282015460ff1660048111156112bb57fe5b14155b156113c3578054600080600284015460ff1660048111156112db57fe5b14156112e957506064611387565b6001600284015460ff1660048111156112fe57fe5b141561130c57506032611387565b60028084015460ff16600481111561132057fe5b141561134357506006880154601990611339908361286c565b60068a0155611387565b6003600284015460ff16600481111561135857fe5b141561138757600789015461136d908361286c565b60078a01556006890154611381908361286c565b60068a01555b60006113996127106109a885856127cd565b90506113a5838261286c565b92506113b18682612704565b95506113bd8784612704565b96505050505b50600101611261565b506113ea6113d86118ed565b86546001600160a01b031690836128ae565b8454611400906001600160a01b031633846128ae565b604080518381529051879133917fbb757047c2b5f3974fe26b7c10f732e7bce710b0952a71082702781e62ae05959181900360200190a3505050505050565b6097546001600160a01b031690565b60a15481565b603281565b60995460005b8181101561147857611470816108e3565b60010161145f565b5050565b60985490565b61148a612868565b6065546001600160a01b039081169116146114ec576040805162461bcd60e51b815260206004820181905260248201527f4f776e61626c653a2063616c6c6572206973206e6f7420746865206f776e6572604482015290519081900360640190fd5b80156114fa576114fa611459565b611537826115316099868154811061150e57fe5b906000526020600020906008020160010154609b5461286c90919063ffffffff16565b90612704565b609b81905550816099848154811061154b57fe5b906000526020600020906008020160010181905550505050565b6000806099848154811061157557fe5b60009182526020808320878452609a825260408085206001600160a01b0389811687529084528186206008959095029092016003810154815483516370a0823160e01b815230600482015293519298509596909590949316926370a082319260248082019391829003018186803b1580156115ef57600080fd5b505afa158015611603573d6000803e3d6000fd5b505050506040513d602081101561161957600080fd5b505160028501549091504311801561163057508015155b156116895760006116458560020154436118fc565b9050600061166c609b546109a888600101546110a7609854876127cd90919063ffffffff16565b90506116846110c5846109a88464e8d4a510006127cd565b935050505b82546000805b828110156117c35760008682815481106116a557fe5b90600052602060002090600602019050600081600001541180156116cc5750428160030154115b156117ba5760006116fb826001015461114164e8d4a510006109a88b87600001546127cd90919063ffffffff16565b90506117078482612704565b935060028083015460ff16600481111561171d57fe5b10611760576000611750836004015461114164e8d4a510006109a88e6004015488600001546127cd90919063ffffffff16565b905061175c8582612704565b9450505b6003600283015460ff16600481111561177557fe5b106117b85760006117a8836005015461114164e8d4a510006109a88e6005015488600001546127cd90919063ffffffff16565b90506117b48582612704565b9450505b505b5060010161168f565b5098975050505050505050565b6117d8612868565b6065546001600160a01b0390811691161461183a576040805162461bcd60e51b815260206004820181905260248201527f4f776e61626c653a2063616c6c6572206973206e6f7420746865206f776e6572604482015290519081900360640190fd5b6065546040516000916001600160a01b0316907f8be0079c531659141344cd1fd0a4f28419497f9722a3daafe3b4186f6b6457e0908390a3606580546001600160a01b0319169055565b61188c612915565b609780546001600160a01b03199081166001600160a01b0393841617909155609f805482169483169490941790935560a08054909316911617905560006098819055609c91909155609b819055609d55565b6097546001600160a01b031681565b6065546001600160a01b031690565b6000611908828461286c565b9392505050565b60985481565b61191d612868565b6065546001600160a01b0390811691161461197f576040805162461bcd60e51b815260206004820181905260248201527f4f776e61626c653a2063616c6c6572206973206e6f7420746865206f776e6572604482015290519081900360640190fd5b60a155565b609754604080516323b872dd60e01b81523360048201523060248201526044810184905290516001600160a01b03909216916323b872dd916064808201926020929091908290030181600087803b1580156119de57600080fd5b505af11580156119f2573d6000803e3d6000fd5b505050506040513d6020811015611a0857600080fd5b505060995460005b81811015611a9557600060998281548110611a2757fe5b906000526020600020906008020190506000816007015490506000611a5f609b546109a88560010154896127cd90919063ffffffff16565b9050611a82611a77836109a88464e8d4a510006127cd565b600585015490612704565b6005909301929092555050600101611a10565b505050565b6000908152609a6020908152604080832033845290915290205490565b609754604080516370a0823160e01b81526001600160a01b038481166004830152915160009392909216916370a0823191602480820192602092909190829003018186803b158015611b0857600080fd5b505afa158015611b1c573d6000803e3d6000fd5b505050506040513d6020811015611b3257600080fd5b505192915050565b600060998281548110611b4957fe5b60009182526020808320858452609a82526040808520338652909252922060089091029091019150611b7a836108e3565b805460008080805b84811015611edc576000868281548110611b9857fe5b9060005260206000209060060201905060008160000154118015611bc0575042816003015411155b8015611c0857506004600282015460ff166004811115611bdc57fe5b141580611c0857506004600282015460ff166004811115611bf957fe5b148015611c0857506001880154155b15611ed3576000611c3b826001015461114164e8d4a510006109a88d6003015487600001546127cd90919063ffffffff16565b9050611c478682612704565b825490965060028084015460ff166004811115611c6057fe5b10611ccc576000611c93846004015461114164e8d4a510006109a88f6004015489600001546127cd90919063ffffffff16565b9050611c9f8882612704565b9750611cc564e8d4a510006109a88d6004015487600001546127cd90919063ffffffff16565b6004850155505b6003600284015460ff166004811115611ce157fe5b10611d4d576000611d14846005015461114164e8d4a510006109a88f6005015489600001546127cd90919063ffffffff16565b9050611d208882612704565b9750611d4664e8d4a510006109a88d6005015487600001546127cd90919063ffffffff16565b6005850155505b600080600285015460ff166004811115611d6357fe5b1415611d7157506064611e8b565b6001600285015460ff166004811115611d8657fe5b1415611d9457506032611e8b565b60028085015460ff166004811115611da857fe5b1415611dcb575060068a0154601990611dc1908361286c565b60068c0155611e8b565b6003600285015460ff166004811115611de057fe5b1415611e095760078b0154611df5908361286c565b60078c015560068b0154611dc1908361286c565b6004600285015460ff166004811115611e1e57fe5b1415611e8b5760078b0154611e33908361286c565b60078c015560068b0154611e47908361286c565b60068c01558a546001600160a01b03166000908152609e6020526040902054611e70908361286c565b8b546001600160a01b03166000908152609e60205260409020555b6000611e9d6127106109a885856127cd565b9050611ea9838261286c565b9250611eb58782612704565b9650611ec18884612704565b60006001870181905586559750505050505b50600101611b82565b5060005b84811015612083576000888152609a602090815260408083203384529091528120805483908110611f0d57fe5b9060005260206000209060060201905080600001546000141561207657815b600187038110156120005760008a8152609a602090815260408083203384529091529020805460018301908110611f5f57fe5b600091825260208083208d8452609a82526040808520338652909252922080546006909202909201919083908110611f9357fe5b60009182526020909120825460069092020190815560018083015481830155600280840154908301805460ff90921692909160ff191690836004811115611fd657fe5b02179055506003828101549082015560048083015490820155600591820154910155600101611f2c565b5061200c86600161286c565b60008a8152609a6020908152604080832033845290915290208054919750908061203257fe5b6000828152602081206006600019909301928302018181556001810182905560028101805460ff19169055600381018290556004810182905560050155905561207d565b6001909101905b50611ee0565b5061208e33846129c6565b6120ab6120996118ed565b87546001600160a01b031690836128ae565b85546120c1906001600160a01b031633846128ae565b604080518381529051889133917ff279e6a1f5e320cca91135676d9cb6e44ca8a08c0b88342bcdb1144f6511b5689181900360200190a350505050505050565b61271081565b60006121256127106109a86064609d546127cd90919063ffffffff16565b6097546040805163a9059cbb60e01b81523360048201526024810184905290519293506001600160a01b039091169163a9059cbb916044808201926020929091908290030181600087803b15801561217c57600080fd5b505af1158015612190573d6000803e3d6000fd5b505050506040513d60208110156121a657600080fd5b5050609d546121b5908261286c565b609d8190556121c4575061225a565b60995460005b81811015612251576000609982815481106121e157fe5b90600052602060002090600802019050600081600601549050600061221b609b546109a88560010154609d546127cd90919063ffffffff16565b905061223e612233836109a88464e8d4a510006127cd565b600485015490612704565b60049093019290925550506001016121ca565b50506000609d55505b565b609754604080517f8da5cb5b00000000000000000000000000000000000000000000000000000000815290516000926001600160a01b031691638da5cb5b916004808301926020929190829003018186803b158015610f6c57600080fd5b6000609982815481106122c957fe5b60009182526020808320858452609a825260408085203386529092529220600890910290910191506122fa836108e3565b80546000805b828110156124b457600084828154811061231657fe5b906000526020600020906006020190506000816000015411801561233e575042816003015411155b156124ab576000612371826001015461114164e8d4a510006109a88b6003015487600001546127cd90919063ffffffff16565b905061237d8482612704565b93506123a364e8d4a510006109a8896003015485600001546127cd90919063ffffffff16565b600183015560028083015460ff1660048111156123bc57fe5b106124285760006123ef836004015461114164e8d4a510006109a88c6004015488600001546127cd90919063ffffffff16565b90506123fb8582612704565b945061242164e8d4a510006109a88a6004015486600001546127cd90919063ffffffff16565b6004840155505b6003600283015460ff16600481111561243d57fe5b106124a9576000612470836005015461114164e8d4a510006109a88c6005015488600001546127cd90919063ffffffff16565b905061247c8582612704565b94506124a264e8d4a510006109a88a6005015486600001546127cd90919063ffffffff16565b6005840155505b505b50600101612300565b506124bf33826129c6565b5050505050565b609a60205282600052604060002060205281600052604060002081815481106124eb57fe5b600091825260209091206006909102018054600182015460028301546003840154600485015460059095015493975091955060ff169350919086565b61252f612868565b6065546001600160a01b03908116911614612591576040805162461bcd60e51b815260206004820181905260248201527f4f776e61626c653a2063616c6c6572206973206e6f7420746865206f776e6572604482015290519081900360640190fd5b600081116125e6576040805162461bcd60e51b815260206004820152601d60248201527f5f707562506572426c6f636b206d757374206265206e6f6e2d7a65726f000000604482015290519081900360640190fd5b6125ee611459565b609855565b6125fb612868565b6065546001600160a01b0390811691161461265d576040805162461bcd60e51b815260206004820181905260248201527f4f776e61626c653a2063616c6c6572206973206e6f7420746865206f776e6572604482015290519081900360640190fd5b6001600160a01b0381166126a25760405162461bcd60e51b81526004018080602001828103825260268152602001806130206026913960400191505060405180910390fd5b6065546040516001600160a01b038084169216907f8be0079c531659141344cd1fd0a4f28419497f9722a3daafe3b4186f6b6457e090600090a3606580546001600160a01b0319166001600160a01b0392909216919091179055565b609d5481565b600082820183811015611908576040805162461bcd60e51b815260206004820152601b60248201527f536166654d6174683a206164646974696f6e206f766572666c6f770000000000604482015290519081900360640190fd5b604080516001600160a01b0380861660248301528416604482015260648082018490528251808303909101815260849091019091526020810180517bffffffffffffffffffffffffffffffffffffffffffffffffffffffff166323b872dd60e01b179052610bf6908590612b4f565b6000826127dc57506000610820565b828202828482816127e957fe5b04146119085760405162461bcd60e51b815260040180806020018281038252602181526020018061306e6021913960400191505060405180910390fd5b600061190883836040518060400160405280601a81526020017f536166654d6174683a206469766973696f6e206279207a65726f000000000000815250612d07565b3390565b600061190883836040518060400160405280601e81526020017f536166654d6174683a207375627472616374696f6e206f766572666c6f770000815250612da9565b604080516001600160a01b038416602482015260448082018490528251808303909101815260649091019091526020810180517bffffffffffffffffffffffffffffffffffffffffffffffffffffffff1663a9059cbb60e01b179052611a95908490612b4f565b600054610100900460ff168061292e575061292e612e03565b8061293c575060005460ff16155b6129775760405162461bcd60e51b815260040180806020018281038252602e81526020018061308f602e913960400191505060405180910390fd5b600054610100900460ff161580156129a2576000805460ff1961ff0019909116610100171660011790555b6129aa612e09565b6129b2612ea9565b80156108e3576000805461ff001916905550565b609754604080516370a0823160e01b815230600482015290516000926001600160a01b0316916370a08231916024808301926020929190829003018186803b158015612a1157600080fd5b505afa158015612a25573d6000803e3d6000fd5b505050506040513d6020811015612a3b57600080fd5b5051905080821115612acf576097546040805163a9059cbb60e01b81526001600160a01b038681166004830152602482018590529151919092169163a9059cbb9160448083019260209291908290030181600087803b158015612a9d57600080fd5b505af1158015612ab1573d6000803e3d6000fd5b505050506040513d6020811015612ac757600080fd5b50611a959050565b6097546040805163a9059cbb60e01b81526001600160a01b038681166004830152602482018690529151919092169163a9059cbb9160448083019260209291908290030181600087803b158015612b2557600080fd5b505af1158015612b39573d6000803e3d6000fd5b505050506040513d60208110156124bf57600080fd5b612b61826001600160a01b0316612fa2565b612bb2576040805162461bcd60e51b815260206004820152601f60248201527f5361666545524332303a2063616c6c20746f206e6f6e2d636f6e747261637400604482015290519081900360640190fd5b60006060836001600160a01b0316836040518082805190602001908083835b60208310612bf05780518252601f199092019160209182019101612bd1565b6001836020036101000a0380198251168184511680821785525050505050509050019150506000604051808303816000865af19150503d8060008114612c52576040519150601f19603f3d011682016040523d82523d6000602084013e612c57565b606091505b509150915081612cae576040805162461bcd60e51b815260206004820181905260248201527f5361666545524332303a206c6f772d6c6576656c2063616c6c206661696c6564604482015290519081900360640190fd5b805115610bf657808060200190516020811015612cca57600080fd5b5051610bf65760405162461bcd60e51b815260040180806020018281038252602a8152602001806130bd602a913960400191505060405180910390fd5b60008183612d935760405162461bcd60e51b81526004018080602001828103825283818151815260200191508051906020019080838360005b83811015612d58578181015183820152602001612d40565b50505050905090810190601f168015612d855780820380516001836020036101000a031916815260200191505b509250505060405180910390fd5b506000838581612d9f57fe5b0495945050505050565b60008184841115612dfb5760405162461bcd60e51b8152602060048201818152835160248401528351909283926044909101919085019080838360008315612d58578181015183820152602001612d40565b505050900390565b303b1590565b600054610100900460ff1680612e225750612e22612e03565b80612e30575060005460ff16155b612e6b5760405162461bcd60e51b815260040180806020018281038252602e81526020018061308f602e913960400191505060405180910390fd5b600054610100900460ff161580156129b2576000805460ff1961ff00199091166101001716600117905580156108e3576000805461ff001916905550565b600054610100900460ff1680612ec25750612ec2612e03565b80612ed0575060005460ff16155b612f0b5760405162461bcd60e51b815260040180806020018281038252602e81526020018061308f602e913960400191505060405180910390fd5b600054610100900460ff16158015612f36576000805460ff1961ff0019909116610100171660011790555b6000612f40612868565b606580546001600160a01b0319166001600160a01b038316908117909155604051919250906000907f8be0079c531659141344cd1fd0a4f28419497f9722a3daafe3b4186f6b6457e0908290a35080156108e3576000805461ff001916905550565b6000813f7fc5d2460186f7233c927e7db2dcc703c0e500b653ca82273b7bfad8045d85a470818114801590612fd657508115155b949350505050565b6040518060c0016040528060008152602001600081526020016000600481111561300457fe5b8152602001600081526020016000815260200160008152509056fe4f776e61626c653a206e6577206f776e657220697320746865207a65726f206164647265737343616e206f6e6c792062652063616c6c656420627920507562546f6b656e20636f6e74726163742e536166654d6174683a206d756c7469706c69636174696f6e206f766572666c6f77436f6e747261637420696e7374616e63652068617320616c7265616479206265656e20696e697469616c697a65645361666545524332303a204552433230206f7065726174696f6e20646964206e6f742073756363656564a2646970667358221220886803f11367a4acfe5dc7f9f243675eeaf879c88b03de3842253c47585f382364736f6c634300060c0033",
  "linkReferences": {},
  "deployedLinkReferences": {}
}