{
  "_format": "hh-sol-artifact-1",
  "contractName": "PubToken",
  "sourceName": "contracts/PubToken.sol",
  "abi": [
    {
      "anonymous": false,
      "inputs": [
        {
          "indexed": true,
          "internalType": "address",
          "name": "owner",
          "type": "address"
        },
        {
          "indexed": true,
          "internalType": "address",
          "name": "spender",
          "type": "address"
        },
        {
          "indexed": false,
          "internalType": "uint256",
          "name": "value",
          "type": "uint256"
        }
      ],
      "name": "Approval",
      "type": "event"
    },
    {
      "anonymous": false,
      "inputs": [
        {
          "indexed": true,
          "internalType": "address",
          "name": "previousOwner",
          "type": "address"
        },
        {
          "indexed": true,
          "internalType": "address",
          "name": "newOwner",
          "type": "address"
        }
      ],
      "name": "OwnershipTransferred",
      "type": "event"
    },
    {
      "anonymous": false,
      "inputs": [
        {
          "indexed": true,
          "internalType": "address",
          "name": "from",
          "type": "address"
        },
        {
          "indexed": true,
          "internalType": "address",
          "name": "to",
          "type": "address"
        },
        {
          "indexed": false,
          "internalType": "uint256",
          "name": "value",
          "type": "uint256"
        }
      ],
      "name": "Transfer",
      "type": "event"
    },
    {
      "inputs": [
        {
          "internalType": "address",
          "name": "owner",
          "type": "address"
        },
        {
          "internalType": "address",
          "name": "spender",
          "type": "address"
        }
      ],
      "name": "allowance",
      "outputs": [
        {
          "internalType": "uint256",
          "name": "",
          "type": "uint256"
        }
      ],
      "stateMutability": "view",
      "type": "function"
    },
    {
      "inputs": [
        {
          "internalType": "address",
          "name": "spender",
          "type": "address"
        },
        {
          "internalType": "uint256",
          "name": "amount",
          "type": "uint256"
        }
      ],
      "name": "approve",
      "outputs": [
        {
          "internalType": "bool",
          "name": "",
          "type": "bool"
        }
      ],
      "stateMutability": "nonpayable",
      "type": "function"
    },
    {
      "inputs": [
        {
          "internalType": "address",
          "name": "account",
          "type": "address"
        }
      ],
      "name": "balanceOf",
      "outputs": [
        {
          "internalType": "uint256",
          "name": "",
          "type": "uint256"
        }
      ],
      "stateMutability": "view",
      "type": "function"
    },
    {
      "inputs": [],
      "name": "burnBP",
      "outputs": [
        {
          "internalType": "uint256",
          "name": "",
          "type": "uint256"
        }
      ],
      "stateMutability": "view",
      "type": "function"
    },
    {
      "inputs": [],
      "name": "decimals",
      "outputs": [
        {
          "internalType": "uint8",
          "name": "",
          "type": "uint8"
        }
      ],
      "stateMutability": "view",
      "type": "function"
    },
    {
      "inputs": [
        {
          "internalType": "address",
          "name": "spender",
          "type": "address"
        },
        {
          "internalType": "uint256",
          "name": "subtractedValue",
          "type": "uint256"
        }
      ],
      "name": "decreaseAllowance",
      "outputs": [
        {
          "internalType": "bool",
          "name": "",
          "type": "bool"
        }
      ],
      "stateMutability": "nonpayable",
      "type": "function"
    },
    {
      "inputs": [],
      "name": "endpoint",
      "outputs": [
        {
          "internalType": "contract ILayerZeroEndpoint",
          "name": "",
          "type": "address"
        }
      ],
      "stateMutability": "view",
      "type": "function"
    },
    {
      "inputs": [
        {
          "internalType": "address",
          "name": "",
          "type": "address"
        }
      ],
      "name": "fromOnlyTaxExempt",
      "outputs": [
        {
          "internalType": "bool",
          "name": "",
          "type": "bool"
        }
      ],
      "stateMutability": "view",
      "type": "function"
    },
    {
      "inputs": [],
      "name": "getCallerAddress",
      "outputs": [
        {
          "internalType": "address",
          "name": "",
          "type": "address"
        }
      ],
      "stateMutability": "view",
      "type": "function"
    },
    {
      "inputs": [],
      "name": "getLayerZeroEndpoint",
      "outputs": [
        {
          "internalType": "address",
          "name": "",
          "type": "address"
        }
      ],
      "stateMutability": "view",
      "type": "function"
    },
    {
      "inputs": [],
      "name": "getZroPaymentAddress",
      "outputs": [
        {
          "internalType": "address",
          "name": "",
          "type": "address"
        }
      ],
      "stateMutability": "view",
      "type": "function"
    },
    {
      "inputs": [
        {
          "internalType": "address",
          "name": "spender",
          "type": "address"
        },
        {
          "internalType": "uint256",
          "name": "addedValue",
          "type": "uint256"
        }
      ],
      "name": "increaseAllowance",
      "outputs": [
        {
          "internalType": "bool",
          "name": "",
          "type": "bool"
        }
      ],
      "stateMutability": "nonpayable",
      "type": "function"
    },
    {
      "inputs": [
        {
          "internalType": "uint256",
          "name": "_taxBP",
          "type": "uint256"
        },
        {
          "internalType": "uint256",
          "name": "_burnBP",
          "type": "uint256"
        },
        {
          "internalType": "address",
          "name": "_bartender",
          "type": "address"
        },
        {
          "internalType": "address",
          "name": "_owner",
          "type": "address"
        }
      ],
      "name": "initialize",
      "outputs": [],
      "stateMutability": "nonpayable",
      "type": "function"
    },
    {
      "inputs": [
        {
          "internalType": "uint16",
          "name": "_srcChainId",
          "type": "uint16"
        },
        {
          "internalType": "bytes",
          "name": "_fromAddress",
          "type": "bytes"
        },
        {
          "internalType": "uint64",
          "name": "_nonce",
          "type": "uint64"
        },
        {
          "internalType": "bytes",
          "name": "_payload",
          "type": "bytes"
        }
      ],
      "name": "lzReceive",
      "outputs": [],
      "stateMutability": "nonpayable",
      "type": "function"
    },
    {
      "inputs": [
        {
          "internalType": "address",
          "name": "_to",
          "type": "address"
        },
        {
          "internalType": "uint256",
          "name": "_amount",
          "type": "uint256"
        }
      ],
      "name": "mint",
      "outputs": [],
      "stateMutability": "nonpayable",
      "type": "function"
    },
    {
      "inputs": [],
      "name": "name",
      "outputs": [
        {
          "internalType": "string",
          "name": "",
          "type": "string"
        }
      ],
      "stateMutability": "view",
      "type": "function"
    },
    {
      "inputs": [],
      "name": "owner",
      "outputs": [
        {
          "internalType": "address",
          "name": "",
          "type": "address"
        }
      ],
      "stateMutability": "view",
      "type": "function"
    },
    {
      "inputs": [],
      "name": "renounceOwnership",
      "outputs": [],
      "stateMutability": "nonpayable",
      "type": "function"
    },
    {
      "inputs": [
        {
          "internalType": "uint16",
          "name": "_chainId",
          "type": "uint16"
        },
        {
          "internalType": "bytes",
          "name": "_dstMultiChainTokenAddr",
          "type": "bytes"
        },
        {
          "internalType": "uint256",
          "name": "_qty",
          "type": "uint256"
        }
      ],
      "name": "sendTokens",
      "outputs": [],
      "stateMutability": "payable",
      "type": "function"
    },
    {
      "inputs": [
        {
          "internalType": "address",
          "name": "_newEndpoint",
          "type": "address"
        }
      ],
      "name": "setLayerZeroEndpoint",
      "outputs": [],
      "stateMutability": "nonpayable",
      "type": "function"
    },
    {
      "inputs": [
        {
          "internalType": "address",
          "name": "_newAddress",
          "type": "address"
        }
      ],
      "name": "setZroPaymentAddress",
      "outputs": [],
      "stateMutability": "nonpayable",
      "type": "function"
    },
    {
      "inputs": [],
      "name": "symbol",
      "outputs": [
        {
          "internalType": "string",
          "name": "",
          "type": "string"
        }
      ],
      "stateMutability": "view",
      "type": "function"
    },
    {
      "inputs": [],
      "name": "taxBP",
      "outputs": [
        {
          "internalType": "uint256",
          "name": "",
          "type": "uint256"
        }
      ],
      "stateMutability": "view",
      "type": "function"
    },
    {
      "inputs": [
        {
          "internalType": "address",
          "name": "",
          "type": "address"
        }
      ],
      "name": "taxExempt",
      "outputs": [
        {
          "internalType": "bool",
          "name": "",
          "type": "bool"
        }
      ],
      "stateMutability": "view",
      "type": "function"
    },
    {
      "inputs": [
        {
          "internalType": "address",
          "name": "",
          "type": "address"
        }
      ],
      "name": "toOnlyTaxExempt",
      "outputs": [
        {
          "internalType": "bool",
          "name": "",
          "type": "bool"
        }
      ],
      "stateMutability": "view",
      "type": "function"
    },
    {
      "inputs": [],
      "name": "totalSupply",
      "outputs": [
        {
          "internalType": "uint256",
          "name": "",
          "type": "uint256"
        }
      ],
      "stateMutability": "view",
      "type": "function"
    },
    {
      "inputs": [
        {
          "internalType": "address",
          "name": "recipient",
          "type": "address"
        },
        {
          "internalType": "uint256",
          "name": "amount",
          "type": "uint256"
        }
      ],
      "name": "transfer",
      "outputs": [
        {
          "internalType": "bool",
          "name": "",
          "type": "bool"
        }
      ],
      "stateMutability": "nonpayable",
      "type": "function"
    },
    {
      "inputs": [
        {
          "internalType": "address",
          "name": "sender",
          "type": "address"
        },
        {
          "internalType": "address",
          "name": "recipient",
          "type": "address"
        },
        {
          "internalType": "uint256",
          "name": "amount",
          "type": "uint256"
        }
      ],
      "name": "transferFrom",
      "outputs": [
        {
          "internalType": "bool",
          "name": "",
          "type": "bool"
        }
      ],
      "stateMutability": "nonpayable",
      "type": "function"
    },
    {
      "inputs": [
        {
          "internalType": "address",
          "name": "newOwner",
          "type": "address"
        }
      ],
      "name": "transferOwnership",
      "outputs": [],
      "stateMutability": "nonpayable",
      "type": "function"
    }
  ],
  "bytecode": "0x608060405234801561001057600080fd5b50611eb1806100206000396000f3fe6080604052600436106101c15760003560e01c80635e280f11116100f75780639df66eb711610095578063cac1864211610064578063cac18642146107f4578063d1ecfc6814610809578063dd62ed3e1461083c578063f2fde38b14610877576101c1565b80639df66eb71461073a578063a457c2d71461074f578063a9059cbb14610788578063b51383d5146107c1576101c1565b8063856925cc116100d1578063856925cc146106aa5780638da5cb5b146106dd57806395b9783c146106f257806395d89b4114610725576101c1565b80635e280f111461064d57806370a0823114610662578063715018a614610695576101c1565b8063313ce5671161016457806340c10f191161013e57806340c10f19146105b757806346b3353b146105f05780634efdbf26146106055780635186889514610638576101c1565b8063313ce567146104d857806336da46c914610503578063395093511461057e576101c1565b8063095ea7b3116101a0578063095ea7b3146103f057806318160ddd1461043d5780631b67d8071461046457806323b872dd14610495576101c1565b80621d3567146101c6578063019e27291461031f57806306fdde0314610366575b600080fd5b3480156101d257600080fd5b5061031d600480360360808110156101e957600080fd5b61ffff823516919081019060408101602082013564010000000081111561020f57600080fd5b82018360208201111561022157600080fd5b8035906020019184600183028401116401000000008311171561024357600080fd5b91908080601f016020809104026020016040519081016040528093929190818152602001838380828437600092019190915250929567ffffffffffffffff8535169590949093506040810192506020013590506401000000008111156102a857600080fd5b8201836020820111156102ba57600080fd5b803590602001918460018302840111640100000000831117156102dc57600080fd5b91908080601f0160208091040260200160405190810160405280939291908181526020018383808284376000920191909152509295506108aa945050505050565b005b34801561032b57600080fd5b5061031d6004803603608081101561034257600080fd5b508035906020810135906001600160a01b03604082013581169160600135166108f9565b34801561037257600080fd5b5061037b610a49565b6040805160208082528351818301528351919283929083019185019080838360005b838110156103b557818101518382015260200161039d565b50505050905090810190601f1680156103e25780820380516001836020036101000a031916815260200191505b509250505060405180910390f35b3480156103fc57600080fd5b506104296004803603604081101561041357600080fd5b506001600160a01b038135169060200135610adf565b604080519115158252519081900360200190f35b34801561044957600080fd5b50610452610afc565b60408051918252519081900360200190f35b34801561047057600080fd5b50610479610b02565b604080516001600160a01b039092168252519081900360200190f35b3480156104a157600080fd5b50610429600480360360608110156104b857600080fd5b506001600160a01b03813581169160208101359091169060400135610b11565b3480156104e457600080fd5b506104ed610b60565b6040805160ff9092168252519081900360200190f35b61031d6004803603606081101561051957600080fd5b61ffff823516919081019060408101602082013564010000000081111561053f57600080fd5b82018360208201111561055157600080fd5b8035906020019184600183028401116401000000008311171561057357600080fd5b919350915035610b69565b34801561058a57600080fd5b50610429600480360360408110156105a157600080fd5b506001600160a01b038135169060200135610d90565b3480156105c357600080fd5b5061031d600480360360408110156105da57600080fd5b506001600160a01b038135169060200135610de3565b3480156105fc57600080fd5b50610479610e3a565b34801561061157600080fd5b506104296004803603602081101561062857600080fd5b50356001600160a01b0316610e3e565b34801561064457600080fd5b50610452610e53565b34801561065957600080fd5b50610479610e59565b34801561066e57600080fd5b506104526004803603602081101561068557600080fd5b50356001600160a01b0316610e68565b3480156106a157600080fd5b5061031d610e83565b3480156106b657600080fd5b5061031d600480360360208110156106cd57600080fd5b50356001600160a01b0316610f37565b3480156106e957600080fd5b50610479610fc3565b3480156106fe57600080fd5b5061031d6004803603602081101561071557600080fd5b50356001600160a01b0316610fd2565b34801561073157600080fd5b5061037b61105e565b34801561074657600080fd5b506104526110bf565b34801561075b57600080fd5b506104296004803603604081101561077257600080fd5b506001600160a01b0381351690602001356110c5565b34801561079457600080fd5b50610429600480360360408110156107ab57600080fd5b506001600160a01b03813516906020013561112d565b3480156107cd57600080fd5b50610429600480360360208110156107e457600080fd5b50356001600160a01b031661113a565b34801561080057600080fd5b5061047961114f565b34801561081557600080fd5b506104296004803603602081101561082c57600080fd5b50356001600160a01b031661115e565b34801561084857600080fd5b506104526004803603604081101561085f57600080fd5b506001600160a01b0381358116916020013516611173565b34801561088357600080fd5b5061031d6004803603602081101561089a57600080fd5b50356001600160a01b031661119e565b60cf546001600160a01b031633146108c157600080fd5b6000808280602001905160408110156108d957600080fd5b50805160209091015190925090506108f182826112a9565b505050505050565b600054610100900460ff1680610912575061091261139b565b80610920575060005460ff16155b61095b5760405162461bcd60e51b815260040180806020018281038252602e815260200180611dbf602e913960400191505060405180910390fd5b600054610100900460ff16158015610986576000805460ff1961ff0019909116610100171660011790555b6109fa6040518060400160405280600b81526020017f7075622e66696e616e63650000000000000000000000000000000000000000008152506040518060400160405280600481526020017f50494e54000000000000000000000000000000000000000000000000000000008152506113a1565b610a02611457565b60ca85905560c9849055610a158261119e565b60cb80546001600160a01b0319166001600160a01b0385161790558015610a42576000805461ff00191690555b5050505050565b60688054604080516020601f6002600019610100600188161502019095169490940493840181900481028201810190925282815260609390929091830182828015610ad55780601f10610aaa57610100808354040283529160200191610ad5565b820191906000526020600020905b815481529060010190602001808311610ab857829003601f168201915b5050505050905090565b6000610af3610aec610e3a565b8484611509565b50600192915050565b60675490565b60d0546001600160a01b031690565b6000610b1e8484846115f5565b610b5533610b5084604051806060016040528060218152602001611d1a60219139610b498933611173565b9190611752565b610adf565b506001949350505050565b606a5460ff1690565b80610b743330611173565b1015610bb15760405162461bcd60e51b8152600401808060200182810382526035815260200180611d8a6035913960400191505060405180910390fd5b610bbb33826117e9565b60408051336020820181905281830184905282518083038401815260cf5460d0546080850186526000606090950194855294517fc580310000000000000000000000000000000000000000000000000000000000815261ffff8a1660048201908152606482018590526001600160a01b039687166084830181905260c06024840190815260c484018b905294979093169563c58031009534958d958d958d958c9592939091604481019060a481019060e4018a8a808284376000838201819052601f909101601f191690920186810385528a5181528a51602091820193918c019250908190849084905b83811015610cbd578181015183820152602001610ca5565b50505050905090810190601f168015610cea5780820380516001836020036101000a031916815260200191505b50848103825285518152855160209182019187019080838360005b83811015610d1d578181015183820152602001610d05565b50505050905090810190601f168015610d4a5780820380516001836020036101000a031916815260200191505b509a50505050505050505050506000604051808303818588803b158015610d7057600080fd5b505af1158015610d84573d6000803e3d6000fd5b50505050505050505050565b6000610af3610d9d610e3a565b84610dde8560666000610dae610e3a565b6001600160a01b03908116825260208083019390935260409182016000908120918c1681529252902054906118e5565b611509565b60cb546001600160a01b03163314610e2c5760405162461bcd60e51b8152600401808060200182810382526029815260200180611d616029913960400191505060405180910390fd5b610e3682826112a9565b5050565b3390565b60ce6020526000908152604090205460ff1681565b60c95481565b60cf546001600160a01b031681565b6001600160a01b031660009081526065602052604090205490565b610e8b610e3a565b6097546001600160a01b03908116911614610eed576040805162461bcd60e51b815260206004820181905260248201527f4f776e61626c653a2063616c6c6572206973206e6f7420746865206f776e6572604482015290519081900360640190fd5b6097546040516000916001600160a01b0316907f8be0079c531659141344cd1fd0a4f28419497f9722a3daafe3b4186f6b6457e0908390a3609780546001600160a01b0319169055565b610f3f610e3a565b6097546001600160a01b03908116911614610fa1576040805162461bcd60e51b815260206004820181905260248201527f4f776e61626c653a2063616c6c6572206973206e6f7420746865206f776e6572604482015290519081900360640190fd5b60d080546001600160a01b0319166001600160a01b0392909216919091179055565b6097546001600160a01b031690565b610fda610e3a565b6097546001600160a01b0390811691161461103c576040805162461bcd60e51b815260206004820181905260248201527f4f776e61626c653a2063616c6c6572206973206e6f7420746865206f776e6572604482015290519081900360640190fd5b60cf80546001600160a01b0319166001600160a01b0392909216919091179055565b60698054604080516020601f6002600019610100600188161502019095169490940493840181900481028201810190925282815260609390929091830182828015610ad55780601f10610aaa57610100808354040283529160200191610ad5565b60ca5481565b6000610af36110d2610e3a565b84610dde85604051806060016040528060258152602001611e5760259139606660006110fc610e3a565b6001600160a01b03908116825260208083019390935260409182016000908120918d16815292529020549190611752565b6000610af33384846115f5565b60cd6020526000908152604090205460ff1681565b60cf546001600160a01b031690565b60cc6020526000908152604090205460ff1681565b6001600160a01b03918216600090815260666020908152604080832093909416825291909152205490565b6111a6610e3a565b6097546001600160a01b03908116911614611208576040805162461bcd60e51b815260206004820181905260248201527f4f776e61626c653a2063616c6c6572206973206e6f7420746865206f776e6572604482015290519081900360640190fd5b6001600160a01b03811661124d5760405162461bcd60e51b8152600401808060200182810382526026815260200180611cd26026913960400191505060405180910390fd5b6097546040516001600160a01b038084169216907f8be0079c531659141344cd1fd0a4f28419497f9722a3daafe3b4186f6b6457e090600090a3609780546001600160a01b0319166001600160a01b0392909216919091179055565b6001600160a01b038216611304576040805162461bcd60e51b815260206004820152601f60248201527f45524332303a206d696e7420746f20746865207a65726f206164647265737300604482015290519081900360640190fd5b61131060008383611452565b60675461131d90826118e5565b6067556001600160a01b03821660009081526065602052604090205461134390826118e5565b6001600160a01b03831660008181526065602090815260408083209490945583518581529351929391927fddf252ad1be2c89b69c2b068fc378daa952ba7f163c4a11628f55a4df523b3ef9281900390910190a35050565b303b1590565b600054610100900460ff16806113ba57506113ba61139b565b806113c8575060005460ff16155b6114035760405162461bcd60e51b815260040180806020018281038252602e815260200180611dbf602e913960400191505060405180910390fd5b600054610100900460ff1615801561142e576000805460ff1961ff0019909116610100171660011790555b611436611946565b61144083836119e6565b8015611452576000805461ff00191690555b505050565b600054610100900460ff1680611470575061147061139b565b8061147e575060005460ff16155b6114b95760405162461bcd60e51b815260040180806020018281038252602e815260200180611dbf602e913960400191505060405180910390fd5b600054610100900460ff161580156114e4576000805460ff1961ff0019909116610100171660011790555b6114ec611946565b6114f4611abe565b8015611506576000805461ff00191690555b50565b6001600160a01b03831661154e5760405162461bcd60e51b8152600401808060200182810382526024815260200180611e336024913960400191505060405180910390fd5b6001600160a01b0382166115935760405162461bcd60e51b8152600401808060200182810382526022815260200180611cf86022913960400191505060405180910390fd5b6001600160a01b03808416600081815260666020908152604080832094871680845294825291829020859055815185815291517f8c5be1e5ebec7d5bd14f71427d1e84f3dd0314c0f7b2291e5b200ac8c7c3b9259281900390910190a3505050565b6001600160a01b03831661163a5760405162461bcd60e51b8152600401808060200182810382526025815260200180611e0e6025913960400191505060405180910390fd5b6001600160a01b03821661167f5760405162461bcd60e51b8152600401808060200182810382526023815260200180611c8d6023913960400191505060405180910390fd5b61168a838383611452565b6116c781604051806060016040528060268152602001611d3b602691396001600160a01b0386166000908152606560205260409020549190611752565b6001600160a01b0380851660009081526065602052604080822093909355908416815220546116f690826118e5565b6001600160a01b0380841660008181526065602090815260409182902094909455805185815290519193928716927fddf252ad1be2c89b69c2b068fc378daa952ba7f163c4a11628f55a4df523b3ef92918290030190a3505050565b600081848411156117e15760405162461bcd60e51b81526004018080602001828103825283818151815260200191508051906020019080838360005b838110156117a657818101518382015260200161178e565b50505050905090810190601f1680156117d35780820380516001836020036101000a031916815260200191505b509250505060405180910390fd5b505050900390565b6001600160a01b03821661182e5760405162461bcd60e51b8152600401808060200182810382526021815260200180611ded6021913960400191505060405180910390fd5b61183a82600083611452565b61187781604051806060016040528060228152602001611cb0602291396001600160a01b0385166000908152606560205260409020549190611752565b6001600160a01b03831660009081526065602052604090205560675461189d9082611bb7565b6067556040805182815290516000916001600160a01b038516917fddf252ad1be2c89b69c2b068fc378daa952ba7f163c4a11628f55a4df523b3ef9181900360200190a35050565b60008282018381101561193f576040805162461bcd60e51b815260206004820152601b60248201527f536166654d6174683a206164646974696f6e206f766572666c6f770000000000604482015290519081900360640190fd5b9392505050565b600054610100900460ff168061195f575061195f61139b565b8061196d575060005460ff16155b6119a85760405162461bcd60e51b815260040180806020018281038252602e815260200180611dbf602e913960400191505060405180910390fd5b600054610100900460ff161580156114f4576000805460ff1961ff0019909116610100171660011790558015611506576000805461ff001916905550565b600054610100900460ff16806119ff57506119ff61139b565b80611a0d575060005460ff16155b611a485760405162461bcd60e51b815260040180806020018281038252602e815260200180611dbf602e913960400191505060405180910390fd5b600054610100900460ff16158015611a73576000805460ff1961ff0019909116610100171660011790555b8251611a86906068906020860190611bf9565b508151611a9a906069906020850190611bf9565b50606a805460ff191660121790558015611452576000805461ff0019169055505050565b600054610100900460ff1680611ad75750611ad761139b565b80611ae5575060005460ff16155b611b205760405162461bcd60e51b815260040180806020018281038252602e815260200180611dbf602e913960400191505060405180910390fd5b600054610100900460ff16158015611b4b576000805460ff1961ff0019909116610100171660011790555b6000611b55610e3a565b609780546001600160a01b0319166001600160a01b038316908117909155604051919250906000907f8be0079c531659141344cd1fd0a4f28419497f9722a3daafe3b4186f6b6457e0908290a3508015611506576000805461ff001916905550565b600061193f83836040518060400160405280601e81526020017f536166654d6174683a207375627472616374696f6e206f766572666c6f770000815250611752565b828054600181600116156101000203166002900490600052602060002090601f016020900481019282601f10611c3a57805160ff1916838001178555611c67565b82800160010185558215611c67579182015b82811115611c67578251825591602001919060010190611c4c565b50611c73929150611c77565b5090565b5b80821115611c735760008155600101611c7856fe45524332303a207472616e7366657220746f20746865207a65726f206164647265737345524332303a206275726e20616d6f756e7420657863656564732062616c616e63654f776e61626c653a206e6577206f776e657220697320746865207a65726f206164647265737345524332303a20617070726f766520746f20746865207a65726f20616464726573735472616e7366657220616d6f756e74206578636565647320616c6c6f77616e636545524332303a207472616e7366657220616d6f756e7420657863656564732062616c616e636543616e206f6e6c792062652063616c6c65642062792042617274656e64657220636f6e74726163742e596f75206e65656420746f20617070726f76652074686520636f6e747261637420746f2073656e6420796f757220746f6b656e7321436f6e747261637420696e7374616e63652068617320616c7265616479206265656e20696e697469616c697a656445524332303a206275726e2066726f6d20746865207a65726f206164647265737345524332303a207472616e736665722066726f6d20746865207a65726f206164647265737345524332303a20617070726f76652066726f6d20746865207a65726f206164647265737345524332303a2064656372656173656420616c6c6f77616e63652062656c6f77207a65726fa264697066735822122001eb5fbe3a385947ba20fe63b04171151efbcd45556eb13f9c9b095132a62f4c64736f6c634300060c0033",
  "linkReferences": {},
  "deployedLinkReferences": {}
}