{
  "_format": "hh-sol-artifact-1",
  "contractName": "PubToken",
  "sourceName": "contracts/PubToken.sol",
  "abi": [
    {
      "anonymous": false,
      "inputs": [
        {
          "indexed": true,
          "internalType": "address",
          "name": "owner",
          "type": "address"
        },
        {
          "indexed": true,
          "internalType": "address",
          "name": "spender",
          "type": "address"
        },
        {
          "indexed": false,
          "internalType": "uint256",
          "name": "value",
          "type": "uint256"
        }
      ],
      "name": "Approval",
      "type": "event"
    },
    {
      "anonymous": false,
      "inputs": [
        {
          "indexed": true,
          "internalType": "address",
          "name": "previousOwner",
          "type": "address"
        },
        {
          "indexed": true,
          "internalType": "address",
          "name": "newOwner",
          "type": "address"
        }
      ],
      "name": "OwnershipTransferred",
      "type": "event"
    },
    {
      "anonymous": false,
      "inputs": [
        {
          "indexed": true,
          "internalType": "address",
          "name": "from",
          "type": "address"
        },
        {
          "indexed": true,
          "internalType": "address",
          "name": "to",
          "type": "address"
        },
        {
          "indexed": false,
          "internalType": "uint256",
          "name": "value",
          "type": "uint256"
        }
      ],
      "name": "Transfer",
      "type": "event"
    },
    {
      "inputs": [
        {
          "internalType": "address",
          "name": "owner",
          "type": "address"
        },
        {
          "internalType": "address",
          "name": "spender",
          "type": "address"
        }
      ],
      "name": "allowance",
      "outputs": [
        {
          "internalType": "uint256",
          "name": "",
          "type": "uint256"
        }
      ],
      "stateMutability": "view",
      "type": "function"
    },
    {
      "inputs": [
        {
          "internalType": "address",
          "name": "spender",
          "type": "address"
        },
        {
          "internalType": "uint256",
          "name": "amount",
          "type": "uint256"
        }
      ],
      "name": "approve",
      "outputs": [
        {
          "internalType": "bool",
          "name": "",
          "type": "bool"
        }
      ],
      "stateMutability": "nonpayable",
      "type": "function"
    },
    {
      "inputs": [
        {
          "internalType": "address",
          "name": "account",
          "type": "address"
        }
      ],
      "name": "balanceOf",
      "outputs": [
        {
          "internalType": "uint256",
          "name": "",
          "type": "uint256"
        }
      ],
      "stateMutability": "view",
      "type": "function"
    },
    {
      "inputs": [],
      "name": "burnBP",
      "outputs": [
        {
          "internalType": "uint256",
          "name": "",
          "type": "uint256"
        }
      ],
      "stateMutability": "view",
      "type": "function"
    },
    {
      "inputs": [],
      "name": "decimals",
      "outputs": [
        {
          "internalType": "uint8",
          "name": "",
          "type": "uint8"
        }
      ],
      "stateMutability": "view",
      "type": "function"
    },
    {
      "inputs": [
        {
          "internalType": "address",
          "name": "spender",
          "type": "address"
        },
        {
          "internalType": "uint256",
          "name": "subtractedValue",
          "type": "uint256"
        }
      ],
      "name": "decreaseAllowance",
      "outputs": [
        {
          "internalType": "bool",
          "name": "",
          "type": "bool"
        }
      ],
      "stateMutability": "nonpayable",
      "type": "function"
    },
    {
      "inputs": [
        {
          "internalType": "uint16",
          "name": "",
          "type": "uint16"
        }
      ],
      "name": "dstContractLookup",
      "outputs": [
        {
          "internalType": "bytes",
          "name": "",
          "type": "bytes"
        }
      ],
      "stateMutability": "view",
      "type": "function"
    },
    {
      "inputs": [],
      "name": "endpoint",
      "outputs": [
        {
          "internalType": "contract ILayerZeroEndpoint",
          "name": "",
          "type": "address"
        }
      ],
      "stateMutability": "view",
      "type": "function"
    },
    {
      "inputs": [
        {
          "internalType": "address",
          "name": "",
          "type": "address"
        }
      ],
      "name": "fromOnlyTaxExempt",
      "outputs": [
        {
          "internalType": "bool",
          "name": "",
          "type": "bool"
        }
      ],
      "stateMutability": "view",
      "type": "function"
    },
    {
      "inputs": [],
      "name": "getCallerAddress",
      "outputs": [
        {
          "internalType": "address",
          "name": "",
          "type": "address"
        }
      ],
      "stateMutability": "view",
      "type": "function"
    },
    {
      "inputs": [],
      "name": "getLayerZeroEndpoint",
      "outputs": [
        {
          "internalType": "address",
          "name": "",
          "type": "address"
        }
      ],
      "stateMutability": "view",
      "type": "function"
    },
    {
      "inputs": [],
      "name": "getZroPaymentAddress",
      "outputs": [
        {
          "internalType": "address",
          "name": "",
          "type": "address"
        }
      ],
      "stateMutability": "view",
      "type": "function"
    },
    {
      "inputs": [
        {
          "internalType": "address",
          "name": "spender",
          "type": "address"
        },
        {
          "internalType": "uint256",
          "name": "addedValue",
          "type": "uint256"
        }
      ],
      "name": "increaseAllowance",
      "outputs": [
        {
          "internalType": "bool",
          "name": "",
          "type": "bool"
        }
      ],
      "stateMutability": "nonpayable",
      "type": "function"
    },
    {
      "inputs": [
        {
          "internalType": "uint256",
          "name": "_taxBP",
          "type": "uint256"
        },
        {
          "internalType": "uint256",
          "name": "_burnBP",
          "type": "uint256"
        },
        {
          "internalType": "address",
          "name": "_bartender",
          "type": "address"
        },
        {
          "internalType": "address",
          "name": "_owner",
          "type": "address"
        }
      ],
      "name": "initialize",
      "outputs": [],
      "stateMutability": "nonpayable",
      "type": "function"
    },
    {
      "inputs": [
        {
          "internalType": "uint16",
          "name": "_srcChainId",
          "type": "uint16"
        },
        {
          "internalType": "bytes",
          "name": "_fromAddress",
          "type": "bytes"
        },
        {
          "internalType": "uint64",
          "name": "_nonce",
          "type": "uint64"
        },
        {
          "internalType": "bytes",
          "name": "_payload",
          "type": "bytes"
        }
      ],
      "name": "lzReceive",
      "outputs": [],
      "stateMutability": "nonpayable",
      "type": "function"
    },
    {
      "inputs": [
        {
          "internalType": "address",
          "name": "_to",
          "type": "address"
        },
        {
          "internalType": "uint256",
          "name": "_amount",
          "type": "uint256"
        }
      ],
      "name": "mint",
      "outputs": [],
      "stateMutability": "nonpayable",
      "type": "function"
    },
    {
      "inputs": [],
      "name": "name",
      "outputs": [
        {
          "internalType": "string",
          "name": "",
          "type": "string"
        }
      ],
      "stateMutability": "view",
      "type": "function"
    },
    {
      "inputs": [],
      "name": "owner",
      "outputs": [
        {
          "internalType": "address",
          "name": "",
          "type": "address"
        }
      ],
      "stateMutability": "view",
      "type": "function"
    },
    {
      "inputs": [
        {
          "internalType": "bool",
          "name": "_pause",
          "type": "bool"
        }
      ],
      "name": "pauseSendTokens",
      "outputs": [],
      "stateMutability": "nonpayable",
      "type": "function"
    },
    {
      "inputs": [],
      "name": "paused",
      "outputs": [
        {
          "internalType": "bool",
          "name": "",
          "type": "bool"
        }
      ],
      "stateMutability": "view",
      "type": "function"
    },
    {
      "inputs": [],
      "name": "renounceOwnership",
      "outputs": [],
      "stateMutability": "nonpayable",
      "type": "function"
    },
    {
      "inputs": [
        {
          "internalType": "uint16",
          "name": "_chainId",
          "type": "uint16"
        },
        {
          "internalType": "bytes",
          "name": "_dstMultiChainTokenAddr",
          "type": "bytes"
        },
        {
          "internalType": "uint256",
          "name": "_qty",
          "type": "uint256"
        }
      ],
      "name": "sendTokens",
      "outputs": [],
      "stateMutability": "payable",
      "type": "function"
    },
    {
      "inputs": [
        {
          "internalType": "uint16",
          "name": "_chainId",
          "type": "uint16"
        },
        {
          "internalType": "bytes",
          "name": "_contractAddress",
          "type": "bytes"
        }
      ],
      "name": "setDestination",
      "outputs": [],
      "stateMutability": "nonpayable",
      "type": "function"
    },
    {
      "inputs": [
        {
          "internalType": "address",
          "name": "_newEndpoint",
          "type": "address"
        }
      ],
      "name": "setLayerZeroEndpoint",
      "outputs": [],
      "stateMutability": "nonpayable",
      "type": "function"
    },
    {
      "inputs": [
        {
          "internalType": "address",
          "name": "_newAddress",
          "type": "address"
        }
      ],
      "name": "setZroPaymentAddress",
      "outputs": [],
      "stateMutability": "nonpayable",
      "type": "function"
    },
    {
      "inputs": [],
      "name": "symbol",
      "outputs": [
        {
          "internalType": "string",
          "name": "",
          "type": "string"
        }
      ],
      "stateMutability": "view",
      "type": "function"
    },
    {
      "inputs": [],
      "name": "taxBP",
      "outputs": [
        {
          "internalType": "uint256",
          "name": "",
          "type": "uint256"
        }
      ],
      "stateMutability": "view",
      "type": "function"
    },
    {
      "inputs": [
        {
          "internalType": "address",
          "name": "",
          "type": "address"
        }
      ],
      "name": "taxExempt",
      "outputs": [
        {
          "internalType": "bool",
          "name": "",
          "type": "bool"
        }
      ],
      "stateMutability": "view",
      "type": "function"
    },
    {
      "inputs": [
        {
          "internalType": "address",
          "name": "",
          "type": "address"
        }
      ],
      "name": "toOnlyTaxExempt",
      "outputs": [
        {
          "internalType": "bool",
          "name": "",
          "type": "bool"
        }
      ],
      "stateMutability": "view",
      "type": "function"
    },
    {
      "inputs": [],
      "name": "totalSupply",
      "outputs": [
        {
          "internalType": "uint256",
          "name": "",
          "type": "uint256"
        }
      ],
      "stateMutability": "view",
      "type": "function"
    },
    {
      "inputs": [
        {
          "internalType": "address",
          "name": "recipient",
          "type": "address"
        },
        {
          "internalType": "uint256",
          "name": "amount",
          "type": "uint256"
        }
      ],
      "name": "transfer",
      "outputs": [
        {
          "internalType": "bool",
          "name": "",
          "type": "bool"
        }
      ],
      "stateMutability": "nonpayable",
      "type": "function"
    },
    {
      "inputs": [
        {
          "internalType": "address",
          "name": "sender",
          "type": "address"
        },
        {
          "internalType": "address",
          "name": "recipient",
          "type": "address"
        },
        {
          "internalType": "uint256",
          "name": "amount",
          "type": "uint256"
        }
      ],
      "name": "transferFrom",
      "outputs": [
        {
          "internalType": "bool",
          "name": "",
          "type": "bool"
        }
      ],
      "stateMutability": "nonpayable",
      "type": "function"
    },
    {
      "inputs": [
        {
          "internalType": "address",
          "name": "newOwner",
          "type": "address"
        }
      ],
      "name": "transferOwnership",
      "outputs": [],
      "stateMutability": "nonpayable",
      "type": "function"
    }
  ],
  "bytecode": "0x608060405234801561001057600080fd5b5061238c806100206000396000f3fe6080604052600436106101fd5760003560e01c806360f05c7a1161011d5780639df66eb7116100b0578063cac186421161007f578063dd62ed3e11610064578063dd62ed3e14610943578063f18789221461097e578063f2fde38b146109aa576101fd565b8063cac18642146108fb578063d1ecfc6814610910576101fd565b80639df66eb714610841578063a457c2d714610856578063a9059cbb1461088f578063b51383d5146108c8576101fd565b8063856925cc116100ec578063856925cc146107b15780638da5cb5b146107e457806395b9783c146107f957806395d89b411461082c576101fd565b806360f05c7a146106b3578063706d8fff146106e157806370a0823114610769578063715018a61461079c576101fd565b806336da46c9116101955780634efdbf26116101645780634efdbf261461064157806351868895146106745780635c975abb146106895780635e280f111461069e576101fd565b806336da46c91461053f57806339509351146105ba57806340c10f19146105f357806346b3353b1461062c576101fd565b806318160ddd116101d157806318160ddd146104795780631b67d807146104a057806323b872dd146104d1578063313ce56714610514576101fd565b80621d356714610202578063019e27291461035b57806306fdde03146103a2578063095ea7b31461042c575b600080fd5b34801561020e57600080fd5b506103596004803603608081101561022557600080fd5b61ffff823516919081019060408101602082013564010000000081111561024b57600080fd5b82018360208201111561025d57600080fd5b8035906020019184600183028401116401000000008311171561027f57600080fd5b91908080601f016020809104026020016040519081016040528093929190818152602001838380828437600092019190915250929567ffffffffffffffff8535169590949093506040810192506020013590506401000000008111156102e457600080fd5b8201836020820111156102f657600080fd5b8035906020019184600183028401116401000000008311171561031857600080fd5b91908080601f0160208091040260200160405190810160405280939291908181526020018383808284376000920191909152509295506109dd945050505050565b005b34801561036757600080fd5b506103596004803603608081101561037e57600080fd5b508035906020810135906001600160a01b0360408201358116916060013516610b28565b3480156103ae57600080fd5b506103b7610c78565b6040805160208082528351818301528351919283929083019185019080838360005b838110156103f15781810151838201526020016103d9565b50505050905090810190601f16801561041e5780820380516001836020036101000a031916815260200191505b509250505060405180910390f35b34801561043857600080fd5b506104656004803603604081101561044f57600080fd5b506001600160a01b038135169060200135610d0e565b604080519115158252519081900360200190f35b34801561048557600080fd5b5061048e610d2b565b60408051918252519081900360200190f35b3480156104ac57600080fd5b506104b5610d31565b604080516001600160a01b039092168252519081900360200190f35b3480156104dd57600080fd5b50610465600480360360608110156104f457600080fd5b506001600160a01b03813581169160208101359091169060400135610d40565b34801561052057600080fd5b50610529610d8f565b6040805160ff9092168252519081900360200190f35b6103596004803603606081101561055557600080fd5b61ffff823516919081019060408101602082013564010000000081111561057b57600080fd5b82018360208201111561058d57600080fd5b803590602001918460018302840111640100000000831117156105af57600080fd5b919350915035610d98565b3480156105c657600080fd5b50610465600480360360408110156105dd57600080fd5b506001600160a01b038135169060200135611001565b3480156105ff57600080fd5b506103596004803603604081101561061657600080fd5b506001600160a01b038135169060200135611054565b34801561063857600080fd5b506104b56110ab565b34801561064d57600080fd5b506104656004803603602081101561066457600080fd5b50356001600160a01b03166110af565b34801561068057600080fd5b5061048e6110c4565b34801561069557600080fd5b506104656110ca565b3480156106aa57600080fd5b506104b56110d3565b3480156106bf57600080fd5b506103b7600480360360208110156106d657600080fd5b503561ffff166110e2565b3480156106ed57600080fd5b506103596004803603604081101561070457600080fd5b61ffff823516919081019060408101602082013564010000000081111561072a57600080fd5b82018360208201111561073c57600080fd5b8035906020019184600183028401116401000000008311171561075e57600080fd5b50909250905061117d565b34801561077557600080fd5b5061048e6004803603602081101561078c57600080fd5b50356001600160a01b031661120b565b3480156107a857600080fd5b50610359611226565b3480156107bd57600080fd5b50610359600480360360208110156107d457600080fd5b50356001600160a01b03166112da565b3480156107f057600080fd5b506104b5611366565b34801561080557600080fd5b506103596004803603602081101561081c57600080fd5b50356001600160a01b0316611375565b34801561083857600080fd5b506103b7611401565b34801561084d57600080fd5b5061048e611462565b34801561086257600080fd5b506104656004803603604081101561087957600080fd5b506001600160a01b038135169060200135611468565b34801561089b57600080fd5b50610465600480360360408110156108b257600080fd5b506001600160a01b0381351690602001356114d0565b3480156108d457600080fd5b50610465600480360360208110156108eb57600080fd5b50356001600160a01b03166114dd565b34801561090757600080fd5b506104b56114f2565b34801561091c57600080fd5b506104656004803603602081101561093357600080fd5b50356001600160a01b0316611501565b34801561094f57600080fd5b5061048e6004803603604081101561096657600080fd5b506001600160a01b0381358116916020013516611516565b34801561098a57600080fd5b50610359600480360360208110156109a157600080fd5b50351515611541565b3480156109b657600080fd5b50610359600480360360208110156109cd57600080fd5b50356001600160a01b03166115be565b60cf546001600160a01b031633146109f457600080fd5b61ffff8416600090815260d16020526040902054835160026000196101006001851615020190921691909104148015610ab5575060d160008561ffff1661ffff1681526020019081526020016000206040518082805460018160011615610100020316600290048015610a9e5780601f10610a7c576101008083540402835291820191610a9e565b820191906000526020600020905b815481529060010190602001808311610a8a575b505091505060405180910390208380519060200120145b610af05760405162461bcd60e51b815260040180806020018281038252602b81526020018061226f602b913960400191505060405180910390fd5b600080828060200190516040811015610b0857600080fd5b5080516020909101519092509050610b2082826116c9565b505050505050565b600054610100900460ff1680610b415750610b416117bb565b80610b4f575060005460ff16155b610b8a5760405162461bcd60e51b815260040180806020018281038252602e81526020018061229a602e913960400191505060405180910390fd5b600054610100900460ff16158015610bb5576000805460ff1961ff0019909116610100171660011790555b610c296040518060400160405280600b81526020017f7075622e66696e616e63650000000000000000000000000000000000000000008152506040518060400160405280600481526020017f50494e54000000000000000000000000000000000000000000000000000000008152506117c1565b610c31611877565b60ca85905560c9849055610c44826115be565b60cb80546001600160a01b0319166001600160a01b0385161790558015610c71576000805461ff00191690555b5050505050565b60688054604080516020601f6002600019610100600188161502019095169490940493840181900481028201810190925282815260609390929091830182828015610d045780601f10610cd957610100808354040283529160200191610d04565b820191906000526020600020905b815481529060010190602001808311610ce757829003601f168201915b5050505050905090565b6000610d22610d1b6110ab565b8484611929565b50600192915050565b60675490565b60d0546001600160a01b031690565b6000610d4d848484611a15565b610d8433610d7f846040518060600160405280602181526020016121a860219139610d788933611516565b9190611b72565b610d0e565b506001949350505050565b606a5460ff1690565b60d25460ff1615610dda5760405162461bcd60e51b81526004018080602001828103825260228152602001806121ef6022913960400191505060405180910390fd5b80610de53330611516565b1015610e225760405162461bcd60e51b815260040180806020018281038252603581526020018061223a6035913960400191505060405180910390fd5b610e2c3382611c09565b60408051336020820181905281830184905282518083038401815260cf5460d0546080850186526000606090950194855294517fc580310000000000000000000000000000000000000000000000000000000000815261ffff8a1660048201908152606482018590526001600160a01b039687166084830181905260c06024840190815260c484018b905294979093169563c58031009534958d958d958d958c9592939091604481019060a481019060e4018a8a808284376000838201819052601f909101601f191690920186810385528a5181528a51602091820193918c019250908190849084905b83811015610f2e578181015183820152602001610f16565b50505050905090810190601f168015610f5b5780820380516001836020036101000a031916815260200191505b50848103825285518152855160209182019187019080838360005b83811015610f8e578181015183820152602001610f76565b50505050905090810190601f168015610fbb5780820380516001836020036101000a031916815260200191505b509a50505050505050505050506000604051808303818588803b158015610fe157600080fd5b505af1158015610ff5573d6000803e3d6000fd5b50505050505050505050565b6000610d2261100e6110ab565b8461104f856066600061101f6110ab565b6001600160a01b03908116825260208083019390935260409182016000908120918c168152925290205490611d05565b611929565b60cb546001600160a01b0316331461109d5760405162461bcd60e51b81526004018080602001828103825260298152602001806122116029913960400191505060405180910390fd5b6110a782826116c9565b5050565b3390565b60ce6020526000908152604090205460ff1681565b60c95481565b60d25460ff1681565b60cf546001600160a01b031681565b60d16020908152600091825260409182902080548351601f6002600019610100600186161502019093169290920491820184900484028101840190945280845290918301828280156111755780601f1061114a57610100808354040283529160200191611175565b820191906000526020600020905b81548152906001019060200180831161115857829003601f168201915b505050505081565b6111856110ab565b6097546001600160a01b039081169116146111e7576040805162461bcd60e51b815260206004820181905260248201527f4f776e61626c653a2063616c6c6572206973206e6f7420746865206f776e6572604482015290519081900360640190fd5b61ffff8316600090815260d160205260409020611205908383612019565b50505050565b6001600160a01b031660009081526065602052604090205490565b61122e6110ab565b6097546001600160a01b03908116911614611290576040805162461bcd60e51b815260206004820181905260248201527f4f776e61626c653a2063616c6c6572206973206e6f7420746865206f776e6572604482015290519081900360640190fd5b6097546040516000916001600160a01b0316907f8be0079c531659141344cd1fd0a4f28419497f9722a3daafe3b4186f6b6457e0908390a3609780546001600160a01b0319169055565b6112e26110ab565b6097546001600160a01b03908116911614611344576040805162461bcd60e51b815260206004820181905260248201527f4f776e61626c653a2063616c6c6572206973206e6f7420746865206f776e6572604482015290519081900360640190fd5b60d080546001600160a01b0319166001600160a01b0392909216919091179055565b6097546001600160a01b031690565b61137d6110ab565b6097546001600160a01b039081169116146113df576040805162461bcd60e51b815260206004820181905260248201527f4f776e61626c653a2063616c6c6572206973206e6f7420746865206f776e6572604482015290519081900360640190fd5b60cf80546001600160a01b0319166001600160a01b0392909216919091179055565b60698054604080516020601f6002600019610100600188161502019095169490940493840181900481028201810190925282815260609390929091830182828015610d045780601f10610cd957610100808354040283529160200191610d04565b60ca5481565b6000610d226114756110ab565b8461104f85604051806060016040528060258152602001612332602591396066600061149f6110ab565b6001600160a01b03908116825260208083019390935260409182016000908120918d16815292529020549190611b72565b6000610d22338484611a15565b60cd6020526000908152604090205460ff1681565b60cf546001600160a01b031690565b60cc6020526000908152604090205460ff1681565b6001600160a01b03918216600090815260666020908152604080832093909416825291909152205490565b6115496110ab565b6097546001600160a01b039081169116146115ab576040805162461bcd60e51b815260206004820181905260248201527f4f776e61626c653a2063616c6c6572206973206e6f7420746865206f776e6572604482015290519081900360640190fd5b60d2805460ff1916911515919091179055565b6115c66110ab565b6097546001600160a01b03908116911614611628576040805162461bcd60e51b815260206004820181905260248201527f4f776e61626c653a2063616c6c6572206973206e6f7420746865206f776e6572604482015290519081900360640190fd5b6001600160a01b03811661166d5760405162461bcd60e51b81526004018080602001828103825260268152602001806121606026913960400191505060405180910390fd5b6097546040516001600160a01b038084169216907f8be0079c531659141344cd1fd0a4f28419497f9722a3daafe3b4186f6b6457e090600090a3609780546001600160a01b0319166001600160a01b0392909216919091179055565b6001600160a01b038216611724576040805162461bcd60e51b815260206004820152601f60248201527f45524332303a206d696e7420746f20746865207a65726f206164647265737300604482015290519081900360640190fd5b61173060008383611872565b60675461173d9082611d05565b6067556001600160a01b0382166000908152606560205260409020546117639082611d05565b6001600160a01b03831660008181526065602090815260408083209490945583518581529351929391927fddf252ad1be2c89b69c2b068fc378daa952ba7f163c4a11628f55a4df523b3ef9281900390910190a35050565b303b1590565b600054610100900460ff16806117da57506117da6117bb565b806117e8575060005460ff16155b6118235760405162461bcd60e51b815260040180806020018281038252602e81526020018061229a602e913960400191505060405180910390fd5b600054610100900460ff1615801561184e576000805460ff1961ff0019909116610100171660011790555b611856611d66565b6118608383611e06565b8015611872576000805461ff00191690555b505050565b600054610100900460ff168061189057506118906117bb565b8061189e575060005460ff16155b6118d95760405162461bcd60e51b815260040180806020018281038252602e81526020018061229a602e913960400191505060405180910390fd5b600054610100900460ff16158015611904576000805460ff1961ff0019909116610100171660011790555b61190c611d66565b611914611ede565b8015611926576000805461ff00191690555b50565b6001600160a01b03831661196e5760405162461bcd60e51b815260040180806020018281038252602481526020018061230e6024913960400191505060405180910390fd5b6001600160a01b0382166119b35760405162461bcd60e51b81526004018080602001828103825260228152602001806121866022913960400191505060405180910390fd5b6001600160a01b03808416600081815260666020908152604080832094871680845294825291829020859055815185815291517f8c5be1e5ebec7d5bd14f71427d1e84f3dd0314c0f7b2291e5b200ac8c7c3b9259281900390910190a3505050565b6001600160a01b038316611a5a5760405162461bcd60e51b81526004018080602001828103825260258152602001806122e96025913960400191505060405180910390fd5b6001600160a01b038216611a9f5760405162461bcd60e51b815260040180806020018281038252602381526020018061211b6023913960400191505060405180910390fd5b611aaa838383611872565b611ae7816040518060600160405280602681526020016121c9602691396001600160a01b0386166000908152606560205260409020549190611b72565b6001600160a01b038085166000908152606560205260408082209390935590841681522054611b169082611d05565b6001600160a01b0380841660008181526065602090815260409182902094909455805185815290519193928716927fddf252ad1be2c89b69c2b068fc378daa952ba7f163c4a11628f55a4df523b3ef92918290030190a3505050565b60008184841115611c015760405162461bcd60e51b81526004018080602001828103825283818151815260200191508051906020019080838360005b83811015611bc6578181015183820152602001611bae565b50505050905090810190601f168015611bf35780820380516001836020036101000a031916815260200191505b509250505060405180910390fd5b505050900390565b6001600160a01b038216611c4e5760405162461bcd60e51b81526004018080602001828103825260218152602001806122c86021913960400191505060405180910390fd5b611c5a82600083611872565b611c978160405180606001604052806022815260200161213e602291396001600160a01b0385166000908152606560205260409020549190611b72565b6001600160a01b038316600090815260656020526040902055606754611cbd9082611fd7565b6067556040805182815290516000916001600160a01b038516917fddf252ad1be2c89b69c2b068fc378daa952ba7f163c4a11628f55a4df523b3ef9181900360200190a35050565b600082820183811015611d5f576040805162461bcd60e51b815260206004820152601b60248201527f536166654d6174683a206164646974696f6e206f766572666c6f770000000000604482015290519081900360640190fd5b9392505050565b600054610100900460ff1680611d7f5750611d7f6117bb565b80611d8d575060005460ff16155b611dc85760405162461bcd60e51b815260040180806020018281038252602e81526020018061229a602e913960400191505060405180910390fd5b600054610100900460ff16158015611914576000805460ff1961ff0019909116610100171660011790558015611926576000805461ff001916905550565b600054610100900460ff1680611e1f5750611e1f6117bb565b80611e2d575060005460ff16155b611e685760405162461bcd60e51b815260040180806020018281038252602e81526020018061229a602e913960400191505060405180910390fd5b600054610100900460ff16158015611e93576000805460ff1961ff0019909116610100171660011790555b8251611ea6906068906020860190612097565b508151611eba906069906020850190612097565b50606a805460ff191660121790558015611872576000805461ff0019169055505050565b600054610100900460ff1680611ef75750611ef76117bb565b80611f05575060005460ff16155b611f405760405162461bcd60e51b815260040180806020018281038252602e81526020018061229a602e913960400191505060405180910390fd5b600054610100900460ff16158015611f6b576000805460ff1961ff0019909116610100171660011790555b6000611f756110ab565b609780546001600160a01b0319166001600160a01b038316908117909155604051919250906000907f8be0079c531659141344cd1fd0a4f28419497f9722a3daafe3b4186f6b6457e0908290a3508015611926576000805461ff001916905550565b6000611d5f83836040518060400160405280601e81526020017f536166654d6174683a207375627472616374696f6e206f766572666c6f770000815250611b72565b828054600181600116156101000203166002900490600052602060002090601f016020900481019282601f1061205a5782800160ff19823516178555612087565b82800160010185558215612087579182015b8281111561208757823582559160200191906001019061206c565b50612093929150612105565b5090565b828054600181600116156101000203166002900490600052602060002090601f016020900481019282601f106120d857805160ff1916838001178555612087565b82800160010185558215612087579182015b828111156120875782518255916020019190600101906120ea565b5b80821115612093576000815560010161210656fe45524332303a207472616e7366657220746f20746865207a65726f206164647265737345524332303a206275726e20616d6f756e7420657863656564732062616c616e63654f776e61626c653a206e6577206f776e657220697320746865207a65726f206164647265737345524332303a20617070726f766520746f20746865207a65726f20616464726573735472616e7366657220616d6f756e74206578636565647320616c6c6f77616e636545524332303a207472616e7366657220616d6f756e7420657863656564732062616c616e636553656e64696e6720746f6b656e732069732063757272656e746c792070617573656443616e206f6e6c792062652063616c6c65642062792042617274656e64657220636f6e74726163742e596f75206e65656420746f20617070726f76652074686520636f6e747261637420746f2073656e6420796f757220746f6b656e732143616e206f6e6c792062652063616c6c6564206279206f746865722050494e5420636f6e7472616374732e436f6e747261637420696e7374616e63652068617320616c7265616479206265656e20696e697469616c697a656445524332303a206275726e2066726f6d20746865207a65726f206164647265737345524332303a207472616e736665722066726f6d20746865207a65726f206164647265737345524332303a20617070726f76652066726f6d20746865207a65726f206164647265737345524332303a2064656372656173656420616c6c6f77616e63652062656c6f77207a65726fa26469706673582212203287f87821dd38e23b12b85e3b61291968dba8a92d380c312d05d9115b35835164736f6c634300060c0033",
  "linkReferences": {},
  "deployedLinkReferences": {}
}