{
  "_format": "hh-sol-artifact-1",
  "contractName": "PubToken",
  "sourceName": "contracts/PubToken.sol",
  "abi": [
    {
      "anonymous": false,
      "inputs": [
        {
          "indexed": true,
          "internalType": "address",
          "name": "owner",
          "type": "address"
        },
        {
          "indexed": true,
          "internalType": "address",
          "name": "spender",
          "type": "address"
        },
        {
          "indexed": false,
          "internalType": "uint256",
          "name": "value",
          "type": "uint256"
        }
      ],
      "name": "Approval",
      "type": "event"
    },
    {
      "anonymous": false,
      "inputs": [
        {
          "indexed": true,
          "internalType": "address",
          "name": "previousOwner",
          "type": "address"
        },
        {
          "indexed": true,
          "internalType": "address",
          "name": "newOwner",
          "type": "address"
        }
      ],
      "name": "OwnershipTransferred",
      "type": "event"
    },
    {
      "anonymous": false,
      "inputs": [
        {
          "indexed": true,
          "internalType": "address",
          "name": "from",
          "type": "address"
        },
        {
          "indexed": true,
          "internalType": "address",
          "name": "to",
          "type": "address"
        },
        {
          "indexed": false,
          "internalType": "uint256",
          "name": "value",
          "type": "uint256"
        }
      ],
      "name": "Transfer",
      "type": "event"
    },
    {
      "inputs": [
        {
          "internalType": "address",
          "name": "owner",
          "type": "address"
        },
        {
          "internalType": "address",
          "name": "spender",
          "type": "address"
        }
      ],
      "name": "allowance",
      "outputs": [
        {
          "internalType": "uint256",
          "name": "",
          "type": "uint256"
        }
      ],
      "stateMutability": "view",
      "type": "function"
    },
    {
      "inputs": [
        {
          "internalType": "address",
          "name": "spender",
          "type": "address"
        },
        {
          "internalType": "uint256",
          "name": "amount",
          "type": "uint256"
        }
      ],
      "name": "approve",
      "outputs": [
        {
          "internalType": "bool",
          "name": "",
          "type": "bool"
        }
      ],
      "stateMutability": "nonpayable",
      "type": "function"
    },
    {
      "inputs": [
        {
          "internalType": "address",
          "name": "account",
          "type": "address"
        }
      ],
      "name": "balanceOf",
      "outputs": [
        {
          "internalType": "uint256",
          "name": "",
          "type": "uint256"
        }
      ],
      "stateMutability": "view",
      "type": "function"
    },
    {
      "inputs": [],
      "name": "burnBP",
      "outputs": [
        {
          "internalType": "uint256",
          "name": "",
          "type": "uint256"
        }
      ],
      "stateMutability": "view",
      "type": "function"
    },
    {
      "inputs": [],
      "name": "decimals",
      "outputs": [
        {
          "internalType": "uint8",
          "name": "",
          "type": "uint8"
        }
      ],
      "stateMutability": "view",
      "type": "function"
    },
    {
      "inputs": [
        {
          "internalType": "address",
          "name": "spender",
          "type": "address"
        },
        {
          "internalType": "uint256",
          "name": "subtractedValue",
          "type": "uint256"
        }
      ],
      "name": "decreaseAllowance",
      "outputs": [
        {
          "internalType": "bool",
          "name": "",
          "type": "bool"
        }
      ],
      "stateMutability": "nonpayable",
      "type": "function"
    },
    {
      "inputs": [],
      "name": "endpoint",
      "outputs": [
        {
          "internalType": "contract ILayerZeroEndpoint",
          "name": "",
          "type": "address"
        }
      ],
      "stateMutability": "view",
      "type": "function"
    },
    {
      "inputs": [
        {
          "internalType": "uint256",
          "name": "value",
          "type": "uint256"
        }
      ],
      "name": "findTaxAmount",
      "outputs": [
        {
          "internalType": "uint256",
          "name": "tax",
          "type": "uint256"
        },
        {
          "internalType": "uint256",
          "name": "devTax",
          "type": "uint256"
        }
      ],
      "stateMutability": "view",
      "type": "function"
    },
    {
      "inputs": [
        {
          "internalType": "address",
          "name": "",
          "type": "address"
        }
      ],
      "name": "fromOnlyTaxExempt",
      "outputs": [
        {
          "internalType": "bool",
          "name": "",
          "type": "bool"
        }
      ],
      "stateMutability": "view",
      "type": "function"
    },
    {
      "inputs": [],
      "name": "getCallerAddress",
      "outputs": [
        {
          "internalType": "address",
          "name": "",
          "type": "address"
        }
      ],
      "stateMutability": "view",
      "type": "function"
    },
    {
      "inputs": [
        {
          "internalType": "address",
          "name": "spender",
          "type": "address"
        },
        {
          "internalType": "uint256",
          "name": "addedValue",
          "type": "uint256"
        }
      ],
      "name": "increaseAllowance",
      "outputs": [
        {
          "internalType": "bool",
          "name": "",
          "type": "bool"
        }
      ],
      "stateMutability": "nonpayable",
      "type": "function"
    },
    {
      "inputs": [
        {
          "internalType": "uint256",
          "name": "_taxBP",
          "type": "uint256"
        },
        {
          "internalType": "uint256",
          "name": "_burnBP",
          "type": "uint256"
        },
        {
          "internalType": "address",
          "name": "_bartender",
          "type": "address"
        },
        {
          "internalType": "address",
          "name": "_owner",
          "type": "address"
        }
      ],
      "name": "initialize",
      "outputs": [],
      "stateMutability": "nonpayable",
      "type": "function"
    },
    {
      "inputs": [
        {
          "internalType": "uint16",
          "name": "_srcChainId",
          "type": "uint16"
        },
        {
          "internalType": "bytes",
          "name": "_fromAddress",
          "type": "bytes"
        },
        {
          "internalType": "uint64",
          "name": "_nonce",
          "type": "uint64"
        },
        {
          "internalType": "bytes",
          "name": "_payload",
          "type": "bytes"
        }
      ],
      "name": "lzReceive",
      "outputs": [],
      "stateMutability": "nonpayable",
      "type": "function"
    },
    {
      "inputs": [
        {
          "internalType": "address",
          "name": "_to",
          "type": "address"
        },
        {
          "internalType": "uint256",
          "name": "_amount",
          "type": "uint256"
        }
      ],
      "name": "mint",
      "outputs": [],
      "stateMutability": "nonpayable",
      "type": "function"
    },
    {
      "inputs": [],
      "name": "name",
      "outputs": [
        {
          "internalType": "string",
          "name": "",
          "type": "string"
        }
      ],
      "stateMutability": "view",
      "type": "function"
    },
    {
      "inputs": [],
      "name": "owner",
      "outputs": [
        {
          "internalType": "address",
          "name": "",
          "type": "address"
        }
      ],
      "stateMutability": "view",
      "type": "function"
    },
    {
      "inputs": [],
      "name": "renounceOwnership",
      "outputs": [],
      "stateMutability": "nonpayable",
      "type": "function"
    },
    {
      "inputs": [
        {
          "internalType": "uint16",
          "name": "_chainId",
          "type": "uint16"
        },
        {
          "internalType": "bytes",
          "name": "_dstMultiChainTokenAddr",
          "type": "bytes"
        },
        {
          "internalType": "uint256",
          "name": "_qty",
          "type": "uint256"
        }
      ],
      "name": "sendTokens",
      "outputs": [],
      "stateMutability": "payable",
      "type": "function"
    },
    {
      "inputs": [
        {
          "internalType": "address",
          "name": "account",
          "type": "address"
        },
        {
          "internalType": "bool",
          "name": "status",
          "type": "bool"
        }
      ],
      "name": "setFromOnlyTaxExemptStatus",
      "outputs": [],
      "stateMutability": "nonpayable",
      "type": "function"
    },
    {
      "inputs": [
        {
          "internalType": "address",
          "name": "_newEndpoint",
          "type": "address"
        }
      ],
      "name": "setLayerZeroEndpoint",
      "outputs": [],
      "stateMutability": "nonpayable",
      "type": "function"
    },
    {
      "inputs": [
        {
          "internalType": "uint256",
          "name": "_burnBP",
          "type": "uint256"
        },
        {
          "internalType": "uint256",
          "name": "_taxBP",
          "type": "uint256"
        }
      ],
      "name": "setTaxBPs",
      "outputs": [],
      "stateMutability": "nonpayable",
      "type": "function"
    },
    {
      "inputs": [
        {
          "internalType": "address",
          "name": "account",
          "type": "address"
        },
        {
          "internalType": "bool",
          "name": "status",
          "type": "bool"
        }
      ],
      "name": "setTaxExemptStatus",
      "outputs": [],
      "stateMutability": "nonpayable",
      "type": "function"
    },
    {
      "inputs": [
        {
          "internalType": "address",
          "name": "account",
          "type": "address"
        },
        {
          "internalType": "bool",
          "name": "status",
          "type": "bool"
        }
      ],
      "name": "setToOnlyTaxExemptStatus",
      "outputs": [],
      "stateMutability": "nonpayable",
      "type": "function"
    },
    {
      "inputs": [],
      "name": "symbol",
      "outputs": [
        {
          "internalType": "string",
          "name": "",
          "type": "string"
        }
      ],
      "stateMutability": "view",
      "type": "function"
    },
    {
      "inputs": [],
      "name": "taxBP",
      "outputs": [
        {
          "internalType": "uint256",
          "name": "",
          "type": "uint256"
        }
      ],
      "stateMutability": "view",
      "type": "function"
    },
    {
      "inputs": [
        {
          "internalType": "address",
          "name": "",
          "type": "address"
        }
      ],
      "name": "taxExempt",
      "outputs": [
        {
          "internalType": "bool",
          "name": "",
          "type": "bool"
        }
      ],
      "stateMutability": "view",
      "type": "function"
    },
    {
      "inputs": [
        {
          "internalType": "address",
          "name": "",
          "type": "address"
        }
      ],
      "name": "toOnlyTaxExempt",
      "outputs": [
        {
          "internalType": "bool",
          "name": "",
          "type": "bool"
        }
      ],
      "stateMutability": "view",
      "type": "function"
    },
    {
      "inputs": [],
      "name": "totalSupply",
      "outputs": [
        {
          "internalType": "uint256",
          "name": "",
          "type": "uint256"
        }
      ],
      "stateMutability": "view",
      "type": "function"
    },
    {
      "inputs": [
        {
          "internalType": "address",
          "name": "recipient",
          "type": "address"
        },
        {
          "internalType": "uint256",
          "name": "amount",
          "type": "uint256"
        }
      ],
      "name": "transfer",
      "outputs": [
        {
          "internalType": "bool",
          "name": "",
          "type": "bool"
        }
      ],
      "stateMutability": "nonpayable",
      "type": "function"
    },
    {
      "inputs": [
        {
          "internalType": "address",
          "name": "sender",
          "type": "address"
        },
        {
          "internalType": "address",
          "name": "recipient",
          "type": "address"
        },
        {
          "internalType": "uint256",
          "name": "amount",
          "type": "uint256"
        }
      ],
      "name": "transferFrom",
      "outputs": [
        {
          "internalType": "bool",
          "name": "",
          "type": "bool"
        }
      ],
      "stateMutability": "nonpayable",
      "type": "function"
    },
    {
      "inputs": [
        {
          "internalType": "address",
          "name": "newOwner",
          "type": "address"
        }
      ],
      "name": "transferOwnership",
      "outputs": [],
      "stateMutability": "nonpayable",
      "type": "function"
    }
  ],
  "bytecode": "0x608060405234801561001057600080fd5b50612269806100206000396000f3fe6080604052600436106101d75760003560e01c80635e280f1111610102578063a9059cbb11610095578063dd62ed3e11610064578063dd62ed3e1461086b578063e93eae65146108a6578063f23ec8c4146108d6578063f2fde38b14610919576101d7565b8063a9059cbb14610791578063b51383d5146107ca578063c125c861146107fd578063d1ecfc6814610838576101d7565b806395b9783c116100d157806395b9783c146106fb57806395d89b411461072e5780639df66eb714610743578063a457c2d714610758576101d7565b80635e280f111461068957806370a082311461069e578063715018a6146106d15780638da5cb5b146106e6576101d7565b8063313ce5671161017a57806346b3353b1161014957806346b3353b146106105780634cc0bddb1461037c5780634efdbf26146106415780635186889514610674576101d7565b8063313ce567146104f857806336da46c914610523578063395093511461059e57806340c10f19146105d7576101d7565b806306fdde03116101b657806306fdde03146103b7578063095ea7b31461044157806318160ddd1461048e57806323b872dd146104b5576101d7565b80621d3567146101dc578063019e27291461033557806303baffa11461037c575b600080fd5b3480156101e857600080fd5b50610333600480360360808110156101ff57600080fd5b61ffff823516919081019060408101602082013564010000000081111561022557600080fd5b82018360208201111561023757600080fd5b8035906020019184600183028401116401000000008311171561025957600080fd5b91908080601f016020809104026020016040519081016040528093929190818152602001838380828437600092019190915250929567ffffffffffffffff8535169590949093506040810192506020013590506401000000008111156102be57600080fd5b8201836020820111156102d057600080fd5b803590602001918460018302840111640100000000831117156102f257600080fd5b91908080601f01602080910402602001604051908101604052809392919081815260200183838082843760009201919091525092955061094c945050505050565b005b34801561034157600080fd5b506103336004803603608081101561035857600080fd5b508035906020810135906001600160a01b036040820135811691606001351661099b565b34801561038857600080fd5b506103336004803603604081101561039f57600080fd5b506001600160a01b0381351690602001351515610b3b565b3480156103c357600080fd5b506103cc610bd0565b6040805160208082528351818301528351919283929083019185019080838360005b838110156104065781810151838201526020016103ee565b50505050905090810190601f1680156104335780820380516001836020036101000a031916815260200191505b509250505060405180910390f35b34801561044d57600080fd5b5061047a6004803603604081101561046457600080fd5b506001600160a01b038135169060200135610c66565b604080519115158252519081900360200190f35b34801561049a57600080fd5b506104a3610c84565b60408051918252519081900360200190f35b3480156104c157600080fd5b5061047a600480360360608110156104d857600080fd5b506001600160a01b03813581169160208101359091169060400135610c8a565b34801561050457600080fd5b5061050d610cd9565b6040805160ff9092168252519081900360200190f35b6103336004803603606081101561053957600080fd5b61ffff823516919081019060408101602082013564010000000081111561055f57600080fd5b82018360208201111561057157600080fd5b8035906020019184600183028401116401000000008311171561059357600080fd5b919350915035610ce2565b3480156105aa57600080fd5b5061047a600480360360408110156105c157600080fd5b506001600160a01b038135169060200135610f02565b3480156105e357600080fd5b50610333600480360360408110156105fa57600080fd5b506001600160a01b038135169060200135610f55565b34801561061c57600080fd5b50610625610fac565b604080516001600160a01b039092168252519081900360200190f35b34801561064d57600080fd5b5061047a6004803603602081101561066457600080fd5b50356001600160a01b0316610fb0565b34801561068057600080fd5b506104a3610fc5565b34801561069557600080fd5b50610625610fcb565b3480156106aa57600080fd5b506104a3600480360360208110156106c157600080fd5b50356001600160a01b0316610fda565b3480156106dd57600080fd5b50610333610ff5565b3480156106f257600080fd5b506106256110a9565b34801561070757600080fd5b506103336004803603602081101561071e57600080fd5b50356001600160a01b03166110b8565b34801561073a57600080fd5b506103cc611144565b34801561074f57600080fd5b506104a36111a5565b34801561076457600080fd5b5061047a6004803603604081101561077b57600080fd5b506001600160a01b0381351690602001356111ab565b34801561079d57600080fd5b5061047a600480360360408110156107b457600080fd5b506001600160a01b038135169060200135611213565b3480156107d657600080fd5b5061047a600480360360208110156107ed57600080fd5b50356001600160a01b0316611220565b34801561080957600080fd5b506103336004803603604081101561082057600080fd5b506001600160a01b0381351690602001351515611235565b34801561084457600080fd5b5061047a6004803603602081101561085b57600080fd5b50356001600160a01b03166112ca565b34801561087757600080fd5b506104a36004803603604081101561088e57600080fd5b506001600160a01b03813581169160200135166112df565b3480156108b257600080fd5b50610333600480360360408110156108c957600080fd5b508035906020013561130a565b3480156108e257600080fd5b50610900600480360360208110156108f957600080fd5b50356113df565b6040805192835260208301919091528051918290030190f35b34801561092557600080fd5b506103336004803603602081101561093c57600080fd5b50356001600160a01b0316611415565b60cf546001600160a01b0316331461096357600080fd5b60008082806020019051604081101561097b57600080fd5b50805160209091015190925090506109938282611520565b505050505050565b600054610100900460ff16806109b457506109b4611612565b806109c2575060005460ff16155b6109fd5760405162461bcd60e51b815260040180806020018281038252602e815260200180612177602e913960400191505060405180910390fd5b600054610100900460ff16158015610a28576000805460ff1961ff0019909116610100171660011790555b610a9c6040518060400160405280600b81526020017f7075622e66696e616e63650000000000000000000000000000000000000000008152506040518060400160405280600481526020017f50494e5400000000000000000000000000000000000000000000000000000000815250611618565b610aa46116ce565b60ca85905560c9849055610ab782611415565b60cb54610ace906001600160a01b03166001611235565b610ad9826001611235565b60cb80546001600160a01b0319166001600160a01b038416179055610b078268056bc75e2d63100000610f55565b60cb80546001600160a01b0319166001600160a01b0385161790558015610b34576000805461ff00191690555b5050505050565b610b43610fac565b6097546001600160a01b03908116911614610ba5576040805162461bcd60e51b815260206004820181905260248201527f4f776e61626c653a2063616c6c6572206973206e6f7420746865206f776e6572604482015290519081900360640190fd5b6001600160a01b0391909116600090815260cd60205260409020805460ff1916911515919091179055565b60688054604080516020601f6002600019610100600188161502019095169490940493840181900481028201810190925282815260609390929091830182828015610c5c5780601f10610c3157610100808354040283529160200191610c5c565b820191906000526020600020905b815481529060010190602001808311610c3f57829003601f168201915b5050505050905090565b6000610c7a610c73610fac565b8484611780565b5060015b92915050565b60675490565b6000610c9784848461186c565b610cce33610cc9846040518060600160405280602181526020016120b160219139610cc289336112df565b91906119c9565b610c66565b506001949350505050565b606a5460ff1690565b80610ced33306112df565b1015610d2a5760405162461bcd60e51b81526004018080602001828103825260358152602001806121216035913960400191505060405180910390fd5b610d343382611a60565b60408051336020820181905281830184905282518083038401815260cf546080840185526000606090940184815294517fc580310000000000000000000000000000000000000000000000000000000000815261ffff8a1660048201908152606482018590526084820186905260c06024830190815260c483018a905293966001600160a01b039093169563c58031009534958d958d958d958c95939091604481019060a481019060e4018a8a808284376000838201819052601f909101601f191690920186810385528a5181528a51602091820193918c019250908190849084905b83811015610e2f578181015183820152602001610e17565b50505050905090810190601f168015610e5c5780820380516001836020036101000a031916815260200191505b50848103825285518152855160209182019187019080838360005b83811015610e8f578181015183820152602001610e77565b50505050905090810190601f168015610ebc5780820380516001836020036101000a031916815260200191505b509a50505050505050505050506000604051808303818588803b158015610ee257600080fd5b505af1158015610ef6573d6000803e3d6000fd5b50505050505050505050565b6000610c7a610f0f610fac565b84610f508560666000610f20610fac565b6001600160a01b03908116825260208083019390935260409182016000908120918c168152925290205490611b5c565b611780565b60cb546001600160a01b03163314610f9e5760405162461bcd60e51b81526004018080602001828103825260298152602001806120f86029913960400191505060405180910390fd5b610fa88282611520565b5050565b3390565b60ce6020526000908152604090205460ff1681565b60c95481565b60cf546001600160a01b031681565b6001600160a01b031660009081526065602052604090205490565b610ffd610fac565b6097546001600160a01b0390811691161461105f576040805162461bcd60e51b815260206004820181905260248201527f4f776e61626c653a2063616c6c6572206973206e6f7420746865206f776e6572604482015290519081900360640190fd5b6097546040516000916001600160a01b0316907f8be0079c531659141344cd1fd0a4f28419497f9722a3daafe3b4186f6b6457e0908390a3609780546001600160a01b0319169055565b6097546001600160a01b031690565b6110c0610fac565b6097546001600160a01b03908116911614611122576040805162461bcd60e51b815260206004820181905260248201527f4f776e61626c653a2063616c6c6572206973206e6f7420746865206f776e6572604482015290519081900360640190fd5b60cf80546001600160a01b0319166001600160a01b0392909216919091179055565b60698054604080516020601f6002600019610100600188161502019095169490940493840181900481028201810190925282815260609390929091830182828015610c5c5780601f10610c3157610100808354040283529160200191610c5c565b60ca5481565b6000610c7a6111b8610fac565b84610f508560405180606001604052806025815260200161220f60259139606660006111e2610fac565b6001600160a01b03908116825260208083019390935260409182016000908120918d168152925290205491906119c9565b6000610c7a33848461186c565b60cd6020526000908152604090205460ff1681565b61123d610fac565b6097546001600160a01b0390811691161461129f576040805162461bcd60e51b815260206004820181905260248201527f4f776e61626c653a2063616c6c6572206973206e6f7420746865206f776e6572604482015290519081900360640190fd5b6001600160a01b0391909116600090815260cc60205260409020805460ff1916911515919091179055565b60cc6020526000908152604090205460ff1681565b6001600160a01b03918216600090815260666020908152604080832093909416825291909152205490565b611312610fac565b6097546001600160a01b03908116911614611374576040805162461bcd60e51b815260206004820181905260248201527f4f776e61626c653a2063616c6c6572206973206e6f7420746865206f776e6572604482015290519081900360640190fd5b6127106113818383611b5c565b11156113d4576040805162461bcd60e51b815260206004820152600960248201527f6f76657220313030250000000000000000000000000000000000000000000000604482015290519081900360640190fd5b60c99190915560ca55565b6000806113f760ca5484611bbd90919063ffffffff16565b915061140e60c95484611bbd90919063ffffffff16565b9050915091565b61141d610fac565b6097546001600160a01b0390811691161461147f576040805162461bcd60e51b815260206004820181905260248201527f4f776e61626c653a2063616c6c6572206973206e6f7420746865206f776e6572604482015290519081900360640190fd5b6001600160a01b0381166114c45760405162461bcd60e51b81526004018080602001828103825260268152602001806120696026913960400191505060405180910390fd5b6097546040516001600160a01b038084169216907f8be0079c531659141344cd1fd0a4f28419497f9722a3daafe3b4186f6b6457e090600090a3609780546001600160a01b0319166001600160a01b0392909216919091179055565b6001600160a01b03821661157b576040805162461bcd60e51b815260206004820152601f60248201527f45524332303a206d696e7420746f20746865207a65726f206164647265737300604482015290519081900360640190fd5b611587600083836116c9565b6067546115949082611b5c565b6067556001600160a01b0382166000908152606560205260409020546115ba9082611b5c565b6001600160a01b03831660008181526065602090815260408083209490945583518581529351929391927fddf252ad1be2c89b69c2b068fc378daa952ba7f163c4a11628f55a4df523b3ef9281900390910190a35050565b303b1590565b600054610100900460ff16806116315750611631611612565b8061163f575060005460ff16155b61167a5760405162461bcd60e51b815260040180806020018281038252602e815260200180612177602e913960400191505060405180910390fd5b600054610100900460ff161580156116a5576000805460ff1961ff0019909116610100171660011790555b6116ad611be2565b6116b78383611c82565b80156116c9576000805461ff00191690555b505050565b600054610100900460ff16806116e757506116e7611612565b806116f5575060005460ff16155b6117305760405162461bcd60e51b815260040180806020018281038252602e815260200180612177602e913960400191505060405180910390fd5b600054610100900460ff1615801561175b576000805460ff1961ff0019909116610100171660011790555b611763611be2565b61176b611d5a565b801561177d576000805461ff00191690555b50565b6001600160a01b0383166117c55760405162461bcd60e51b81526004018080602001828103825260248152602001806121eb6024913960400191505060405180910390fd5b6001600160a01b03821661180a5760405162461bcd60e51b815260040180806020018281038252602281526020018061208f6022913960400191505060405180910390fd5b6001600160a01b03808416600081815260666020908152604080832094871680845294825291829020859055815185815291517f8c5be1e5ebec7d5bd14f71427d1e84f3dd0314c0f7b2291e5b200ac8c7c3b9259281900390910190a3505050565b6001600160a01b0383166118b15760405162461bcd60e51b81526004018080602001828103825260258152602001806121c66025913960400191505060405180910390fd5b6001600160a01b0382166118f65760405162461bcd60e51b81526004018080602001828103825260238152602001806120246023913960400191505060405180910390fd5b6119018383836116c9565b61193e816040518060600160405280602681526020016120d2602691396001600160a01b03861660009081526065602052604090205491906119c9565b6001600160a01b03808516600090815260656020526040808220939093559084168152205461196d9082611b5c565b6001600160a01b0380841660008181526065602090815260409182902094909455805185815290519193928716927fddf252ad1be2c89b69c2b068fc378daa952ba7f163c4a11628f55a4df523b3ef92918290030190a3505050565b60008184841115611a585760405162461bcd60e51b81526004018080602001828103825283818151815260200191508051906020019080838360005b83811015611a1d578181015183820152602001611a05565b50505050905090810190601f168015611a4a5780820380516001836020036101000a031916815260200191505b509250505060405180910390fd5b505050900390565b6001600160a01b038216611aa55760405162461bcd60e51b81526004018080602001828103825260218152602001806121a56021913960400191505060405180910390fd5b611ab1826000836116c9565b611aee81604051806060016040528060228152602001612047602291396001600160a01b03851660009081526065602052604090205491906119c9565b6001600160a01b038316600090815260656020526040902055606754611b149082611e53565b6067556040805182815290516000916001600160a01b038516917fddf252ad1be2c89b69c2b068fc378daa952ba7f163c4a11628f55a4df523b3ef9181900360200190a35050565b600082820183811015611bb6576040805162461bcd60e51b815260206004820152601b60248201527f536166654d6174683a206164646974696f6e206f766572666c6f770000000000604482015290519081900360640190fd5b9392505050565b600082611bcc57506000610c7e565b611bb6612710611bdc8585611e95565b90611eee565b600054610100900460ff1680611bfb5750611bfb611612565b80611c09575060005460ff16155b611c445760405162461bcd60e51b815260040180806020018281038252602e815260200180612177602e913960400191505060405180910390fd5b600054610100900460ff1615801561176b576000805460ff1961ff001990911661010017166001179055801561177d576000805461ff001916905550565b600054610100900460ff1680611c9b5750611c9b611612565b80611ca9575060005460ff16155b611ce45760405162461bcd60e51b815260040180806020018281038252602e815260200180612177602e913960400191505060405180910390fd5b600054610100900460ff16158015611d0f576000805460ff1961ff0019909116610100171660011790555b8251611d22906068906020860190611f90565b508151611d36906069906020850190611f90565b50606a805460ff1916601217905580156116c9576000805461ff0019169055505050565b600054610100900460ff1680611d735750611d73611612565b80611d81575060005460ff16155b611dbc5760405162461bcd60e51b815260040180806020018281038252602e815260200180612177602e913960400191505060405180910390fd5b600054610100900460ff16158015611de7576000805460ff1961ff0019909116610100171660011790555b6000611df1610fac565b609780546001600160a01b0319166001600160a01b038316908117909155604051919250906000907f8be0079c531659141344cd1fd0a4f28419497f9722a3daafe3b4186f6b6457e0908290a350801561177d576000805461ff001916905550565b6000611bb683836040518060400160405280601e81526020017f536166654d6174683a207375627472616374696f6e206f766572666c6f7700008152506119c9565b600082611ea457506000610c7e565b82820282848281611eb157fe5b0414611bb65760405162461bcd60e51b81526004018080602001828103825260218152602001806121566021913960400191505060405180910390fd5b6000611bb683836040518060400160405280601a81526020017f536166654d6174683a206469766973696f6e206279207a65726f00000000000081525060008183611f7a5760405162461bcd60e51b8152602060048201818152835160248401528351909283926044909101919085019080838360008315611a1d578181015183820152602001611a05565b506000838581611f8657fe5b0495945050505050565b828054600181600116156101000203166002900490600052602060002090601f016020900481019282601f10611fd157805160ff1916838001178555611ffe565b82800160010185558215611ffe579182015b82811115611ffe578251825591602001919060010190611fe3565b5061200a92915061200e565b5090565b5b8082111561200a576000815560010161200f56fe45524332303a207472616e7366657220746f20746865207a65726f206164647265737345524332303a206275726e20616d6f756e7420657863656564732062616c616e63654f776e61626c653a206e6577206f776e657220697320746865207a65726f206164647265737345524332303a20617070726f766520746f20746865207a65726f20616464726573735472616e7366657220616d6f756e74206578636565647320616c6c6f77616e636545524332303a207472616e7366657220616d6f756e7420657863656564732062616c616e636543616e206f6e6c792062652063616c6c65642062792042617274656e64657220636f6e74726163742e596f75206e65656420746f20617070726f76652074686520636f6e747261637420746f2073656e6420796f757220746f6b656e7321536166654d6174683a206d756c7469706c69636174696f6e206f766572666c6f77436f6e747261637420696e7374616e63652068617320616c7265616479206265656e20696e697469616c697a656445524332303a206275726e2066726f6d20746865207a65726f206164647265737345524332303a207472616e736665722066726f6d20746865207a65726f206164647265737345524332303a20617070726f76652066726f6d20746865207a65726f206164647265737345524332303a2064656372656173656420616c6c6f77616e63652062656c6f77207a65726fa264697066735822122088fbcea6a265cbba7236ee0045c2e2cd906deaa8bdb2720a2e9b54b671212fdb64736f6c634300060c0033",
  "linkReferences": {},
  "deployedLinkReferences": {}
}